:020000040800F2
:10000000C8080020590200086102000863020008C5
:10001000650200086702000869020008000000008D
:100020000000000000000000000000006B0200085B
:100030006D020008000000006F020008450800087B
:1000400073020008730200087302000873020008BC
:1000500073020008730200087302000873020008AC
:10006000730200087302000873020008730200089C
:10007000730200087302000873020008730200088C
:1000800073020008730200087302000800000000F9
:1000900000000000000000000000000073020008E3
:1000A000730200087302000873020008730200085C
:1000B000730200087302000873020008730200084C
:1000C000730200087302000873020008730200083C
:1000D00073020008730200087302000800000000A9
:1000E00015030008730200087302000800000000F6
:1000F0000000000000000000000000007302000883
:100100000000000073020008730200087302000878
:1001100000000000000000000000000000000000DF
:1001200073020008730200087302000873020008DB
:100130007302000800000000000000000000000042
:100140000000000000000000000000007302000832
:1001500073020008730200087302000873020008AB
:100160007302000873020008000000000000000095
:10017000000000000000000000000000000000007F
:1001800000000000730200080000000000000000F2
:10019000730200087302000800F002F800F04CF847
:1001A0000AA090E8000C82448344AAF10107DA45D2
:1001B00001D100F041F8AFF2090EBAE80F0013F0D8
:1001C000010F18BFFB1A43F001031847EC090000A8
:1001D0000C0A00000A4410F8014B14F00F0508BF88
:1001E00010F8015B240908BF10F8014B6D1E05D003
:1001F00010F8013B6D1E01F8013BF9D1641E03D0DC
:10020000641E01F8015BFBD19142E4D3704700000A
:100210000023002400250026103A28BF78C1FBD80F
:10022000520728BF30C148BF0B6070471FB500F0B0
:10023000B5FC1FBD10B510BD00F031F81146FFF739
:10024000F5FF00F0D5FB00F04FF803B4FFF7F2FF25
:1002500003BC00F057F800000948804709480047F0
:10026000FEE7FEE7FEE7FEE7FEE7FEE7FEE7FEE766
:10027000FEE7FEE704480549054A064B70470000C3
:10028000B908000899010008C8020020C808002029
:10029000C8040020C80400207047704770477546A6
:1002A00000F02CF8AE4605006946534620F00700E2
:1002B000854618B020B5FFF7DDFFBDE820404FF0C0
:1002C00000064FF000074FF000084FF0000BAC465F
:1002D000ACE8C009ACE8C009ACE8C009ACE8C009AA
:1002E00021F007018D46704710B50446AFF300803A
:1002F0002046BDE81040FFF7A8BF00000048704747
:100300006002002001491820ABBEFEE72600020073
:100310007047000080B582B0002001900D2000F0F1
:1003200053FB60B1FFE70198652808DBFFE700F0A9
:100330007DF90D2000F03EFB00200190FFE70198C1
:100340000130019002B080BD80B586B00590049167
:100350000392029343F64401C4F20201086840F498
:100360008040086005980021C4F20201884203D150
:10037000FFE70020019026E0059840F20041C4F21A
:100380000201884203D1FFE7012001901AE005989D
:1003900040F60001C4F20201884203D1FFE70220C7
:1003A00001900EE0059840F60041C4F20201884237
:1003B00003D1FFE70320019002E004200190FFE752
:1003C000FFE7FFE7FFE70498C11700EB917121F009
:1003D0000301401A82000F2000FA02F343F60802DC
:1003E000C4F201028858984388500198049BD91799
:1003F00003EB917121F003015B1A9B0000FA03F3F8
:10040000885818438850039860B9FFE70499012081
:1004100000FA01F243F60C41C4F2010108681043EE
:1004200008602BE0039801280CD1FFE70499012014
:1004300000FA01F243F60841C4F2010108681043D2
:1004400008601AE00398022816D1FFE704990120FA
:1004500000FA01F343F60842C4F20102116819439D
:100460001160049900FA01F243F60C41C4F2010153
:10047000086810430860FFE7FFE7FFE704990120E1
:1004800000FA01F243F60041C4F20101086810438A
:100490000860002000900498042804DCFFE704981A
:1004A000063000900AE00498092803DCFFE71720D3
:1004B000009002E028200090FFE7FFE79DF9000090
:1004C000029900F033FA9DF9000000F0FFF906B040
:1004D00080BD000080B584B0039002910192039822
:1004E0000021C4F20201884203D1FFE700F0C6F800
:1004F000FFE7039840F20041C4F20201884203D1B1
:10050000FFE700F0C5F8FFE7039840F60001C4F2EA
:100510000201884203D1FFE700F0C4F8FFE7039827
:1005200040F60041C4F20201884203D1FFE700F027
:10053000C3F8FFE703980299019A00F003F804B0AA
:1005400080BD000083B002900191009201984100AB
:10055000032000FA01F202990868904308600098AD
:100560000199490000FA01F20299086810430860F5
:1005700003B0704783B0029001910092019841004E
:10058000032000FA01F2029988689043886000987D
:100590000199490000FA01F20299886810438860C5
:1005A00003B0704783B0029001910092019901203D
:1005B00000FA01F202994868904348600098019956
:1005C00000FA01F2029948681043486003B070478E
:1005D00083B002900191009201984100032000FA3B
:1005E00001F20299C8689043C860009801994900D7
:1005F00000FA01F20299C8681043C86003B070475E
:1006000083B00290019100920199012000FA01F259
:1006100002994869904348610098019900FA01F2F3
:10062000029948691043486103B0704780B582B0B1
:1006300040F25C22C2F2000201920020106040F2FF
:10064000C520C2F20000017801EBC10340F20401B1
:10065000C2F2000101EB8301126851F8222040F23E
:10066000C421C2F200010A7009780170007800F01C
:10067000E7F901990120086002B080BD43F630011E
:10068000C4F20201086840F00100086070470000F1
:1006900043F63001C4F20201086840F0020008602D
:1006A0007047000043F63001C4F20201086840F0D0
:1006B000040008607047000043F63001C4F20201F4
:1006C000086840F0080008607047000043F6000129
:1006D000C4F20201086840F001000860FFE743F639
:1006E0000000C4F2020000688007002801D4FFE780
:1006F000F5E743F60801C4F20201086820F00300A0
:10070000086008680860FFE743F60800C4F20200CA
:10071000006810F00C0F01D0FFE7F5E740F2000190
:10072000C2F2000142F20040C0F2F40008607047DB
:1007300081B043F60041C4F20201086820F00700CE
:100740000860086840F00200086043F60001C4F247
:100750000201086840F001000860FFE743F600006E
:10076000C4F2020000688007002801D4FFE7F5E723
:1007700043F60001C4F20201086820F080700860AE
:1007800043F60402C4F202020092106820F48000D2
:100790001060106810601068542363F38E101060AE
:1007A0001068082363F305001060106820F44030DF
:1007B0001060086840F080700860FFE743F60000B2
:1007C000C4F20200006800F000710020B0EB516F2D
:1007D00001D0FFE7F2E743F60801C4F2020108681E
:1007E00020F003000860086840F002000860FFE79E
:1007F00043F60800C4F20200006800F00C0008286C
:1008000001D0FFE7F4E743F60801C4F202010868EB
:1008100020F0F0000860086820F4E05008600868E4
:1008200040F480500860086820F46040086040F29E
:100830000001C2F200014BF60050C0F20150086006
:1008400001B0704780B500F001F880BD40F2C021D2
:10085000C2F20001086801300860704780B582B0BC
:100860004EF21001CEF20001002008600A6842F04A
:1008700004020A604EF21403CEF2000344F61F0293
:10088000C0F201021A604EF21802CEF200021060AD
:10089000086840F002000860086840F00100086045
:1008A0004FF0FF300190102100F062F8019800F045
:1008B00025F802B080BD00004EF68851CEF200014E
:1008C000086840F4700008607047000081B08DF83F
:1008D00003009DF9030000280ED4FFE79DF90310E3
:1008E00001F01F02012090404A094EF20011CEF2A1
:1008F000000141F82200FFE701B0704781B08DF898
:1009000003009DF9030000280ED4FFE79DF90310B2
:1009100001F01F02012090404A094EF20011CEF270
:10092000000141F82200FFE701B0704782B08DF866
:10093000070000919DF9070000280AD4FFE70098FE
:1009400000019DF907104EF20042CEF200028854D9
:100950000BE0009800019DF8071001F00F014EF622
:100960001452CEF200028854FFE702B07047000034
:1009700082B08DF8070000919DF9070000280AD485
:10098000FFE7009800019DF907104EF20042CEF2F9
:10099000000288540BE0009800019DF8071001F058
:1009A0000F014EF61452CEF200028854FFE702B057
:1009B0007047000081B0009043F61441C4F2010179
:1009C0000868086001B0704782B001900199012069
:1009D0008840009043F61440C4F20100006800997A
:1009E0000840401AB0FA80F0400902B07047000099
:1009F00080B582B00020019000F002F8FFE7FEE72A
:100A000080B584B0FFF794FEFFF728FF40F60000A2
:100A1000C4F2020001900D21029100220392FFF71F
:100A200059FD019802990222FFF7D2FD019802991F
:100A3000039B1A46FFF788FC00F04AF804B080BD1B
:100A400080B588B08DF81F009DF81F0000EB4001B5
:100A500040F26C10C2F2000000EBC10189680691FF
:100A60009DF81F1001EB410100EBC101C968059120
:100A70009DF81F1001EB410100EBC10109690491D0
:100A80009DF81F1001EB410100EBC100406903908C
:100A9000069A0020C4F20200029007210191FFF79C
:100AA000AFFD059A40F20040C4F202000621FFF7B4
:100AB000A7FD0199049A40F60000C4F20200FFF776
:100AC0009FFD0298039A0921FFF79AFD08B080BDA7
:100AD00080B588B0FFF7FAFD0020C4F2020005904F
:100AE0000721049101220792FFF7F4FC079A40F2D4
:100AF0000040C4F20200019006210291FFF7EAFCD7
:100B00000499079A40F60000C4F202000390FFF730
:100B1000E1FC0598079A09210691FFF7DBFC04998F
:100B2000059800220092FFF73DFD009A0198029976
:100B3000FFF738FD009A03980499FFF733FD009AF8
:100B400005980699FFF72EFD009A04990598FFF77E
:100B50003FFD009A01980299FFF73AFD009A039829
:100B60000499FFF735FD009A05980699FFF730FDC7
:100B700004990598079AFFF7FDFC01980299079AD6
:100B8000FFF7F8FC03980499079AFFF7F3FC059820
:100B90000699079AFFF7EEFC08B080BDF1EE100A47
:100BA0004FF6FF71C0F2C03120EA010040F0407002
:100BB000E1EE100A70470000D80B0008000000208A
:100BC00060020000D4010008800C000860020020D0
:100BD000680600001002000806200024F40001420C
:100BE0000142024201C2014201420142014201426C
:100BF00003C202C2018201420402140342018201C3
:100C000042054204C2014201C20142068205C201FC
:100C1000C2014207420642010218014208021007BF
:100C20004201420142014201420902240802100924
:100C30004201C201021801420202100142014203B4
:100C4000C20282014204C2034201420142058204FF
:100C5000C201420682058201420142078206420128
:100C600082014208820742014201420142094208D0
:100C70000214014209C201420142010000000000C9
:040000050800019955
:00000001FF
