:020000040800F2
:10000000E8060020E5020008ED020008EF02000803
:10001000F1020008F3020008F502000800000000E9
:10002000000000000000000000000000F7020008CF
:10003000F902000800000000FB020008C92B0008BC
:10004000FF020008FF020008FF020008FF0200088C
:10005000FF020008FF020008FF020008FF0200087C
:10006000FF020008FF020008FF020008FF0200086C
:10007000FF020008FF020008FF020008FF0200085C
:10008000FF020008FF02000825140008000000001D
:10009000000000000000000000000000FF02000857
:1000A000FF020008FF020008FF020008FF0200082C
:1000B000FF020008FF020008512C0008FF020008A0
:1000C000FF020008FF020008FF020008FF0200080C
:1000D000FF020008A1320008FF0200080000000033
:1000E000FF020008FF020008FF02000800000000F5
:1000F000000000000000000000000000FF020008F7
:1001000000000000FF020008FF020008FF020008D4
:1001100000000000000000000000000000000000DF
:10012000FF020008FF020008FF020008FF020008AB
:10013000FF020008000000000000000000000000B6
:10014000000000000000000000000000FF020008A6
:10015000FF020008FF020008FF020008FF0200087B
:10016000FF020008FF02000800000000000000007D
:10017000000000000000000000000000000000007F
:1001800000000000FF020008000000000000000066
:10019000FF020008FF02000800F002F800F092F8E9
:1001A0000AA090E8000C82448344AAF10107DA45D2
:1001B00001D100F087F8AFF2090EBAE80F0013F092
:1001C000010F18BFFB1A43F0010318472056000027
:1001D00040560000103A24BF78C878C1FAD85207B8
:1001E00024BF30C830C144BF04680C6070470000B1
:1001F0000023002400250026103A28BF78C1FBD830
:10020000520728BF30C148BF0B6070476E2900F00D
:100210004181702900F08382662905F052826529A8
:1002200005F04F82672905F04C82612905F04B8269
:1002300003681B0A28BF41F08001692900F0EE80A5
:10024000642900F0EB80752900F0E8806F2900F048
:100250001182782900F04F82E92900F0AB81E4296E
:1002600000F0A881F52900F0A581EF2900F00E82A9
:10027000F82900F04E820368DB0928BF41F08001B5
:10028000632900F04F87732900F05487E32900F0B9
:100290005F87F32900F06487002070471FB505F0E1
:1002A000FEF900F0B3FF04000020002104F04AFC36
:1002B000401C60600020002104F02EFCE0601FBDA7
:1002C00010B510BD00F074FF1146FFF7E7FF03F013
:1002D000ABFB01F051F803B4FFF7F2FF03BC01F0F0
:1002E00099F800000948804709480047FEE7FEE703
:1002F000FEE7FEE7FEE7FEE7FEE7FEE7FEE7FEE7D6
:1003000004480549054A064B704700003D2C00088B
:1003100099010008E8000020E8060020E80200201B
:10032000E80200200FB41CB5084B06AA7B446946BE
:100330000090059800F0C7F804460020694600F0D8
:10034000D5F820461CBC5DF814FB0000BD01000080
:1003500070477047704770B5044685690068C106EC
:1003600001D5302600E02026C00707D070BDD4E9B3
:10037000012130469047206A401C20626D1EF6D550
:1003800070BD70B5044685690078C00707D170BD9F
:10039000D4E9012120209047206A401C20626D1E74
:1003A000F6D570BD09684A0501D540B27047C90548
:1003B000FCD500B2704709684A0501D5C0B2704744
:1003C000C905FCD580B2704770B50C460546012AB8
:1003D00005D02878800600D5EA69002302E00123D1
:1003E00005E05B1C934202D2E05C0028F9D1A869C9
:1003F000E618C01AA861286A184428622846FFF740
:10040000AAFF04E0D5E9012114F8010B9047B4429A
:10041000F8D32846FFF7B5FF70BD00002DE9F04185
:100420000646002410687529314616A510D0FFF73E
:10043000B9FF002802DA404213A507E031688A07B5
:1004400001D512A502E0490704D511A5012401E058
:10045000FFF7B1FF00210A2206F1240709E0B0FBF3
:10046000F2FCB0FBF2F302FB1C003030785418466B
:10047000491C0028F3D123462A463046BDE8F04106
:1004800000F061BA000000002D0000002B00000009
:100490002000000011680268006A530501D5087049
:1004A0000AE0D30501D5088006E0130603D5C2177C
:1004B000C1E9000200E008600120704701694A1CA0
:1004C00002610878704700B58FB0CDE90131002195
:1004D000059105497944CDE903101146684600F0BD
:1004E00029F90FB000BD0000E5FFFFFF0A6802F820
:1004F000010B0A60704700002DE9FF5F15468A4630
:100500000446DFF8AC80F8440027D8E900103E46E6
:10051000CDE9001010E03AF816106A4602A800F083
:1005200023FE411C07D02178890603D5E2693918DA
:1005300091420DD80744761C2078800602D5E069E8
:10054000B84205DDAE42E6DB3AF816000028E2D1FB
:10055000A069C01BA0612046FFF7FDFED8E900108E
:10056000CDE90010002017E03AF818106A4602A8FA
:1005700000F0FAFDB0F1FF3F81460BD000250DF1F0
:10058000080B05E0D4E901211BF8050090476D1C1C
:100590004D45F7D308F10100B0428046E4DB206A04
:1005A000384420622046FFF7ECFEBDE8FF9F0000C4
:1005B000C25100002DE9F0418046D21D22F0070211
:1005C0000025D2E90002F52915A614D0011E72F10A
:1005D000000106DA0023D0EB030063EB020211A650
:1005E00008E0D8F800108B0701D50FA602E04907F4
:1005F00001D50EA601251146002408F1240704E0C8
:1006000000F05CF930323A55641C50EA0102F7D12F
:100610002B46324621464046BDE8F04100F093B9F2
:10062000000000002D0000002B0000002000000052
:1006300030B4002100F1240408E002F00705D208DC
:10064000303542EA4372DB086554491C52EA03051F
:10065000F3D10468002310A2250708D504F0200474
:100660000C4304D0C46901230CA2641EC46130BCD5
:1006700000F069B910B5044621461068FFF79BFEEB
:1006800002462046BDE810400023D1E7D21D22F0EB
:100690000701D1E90023CBE7000000003000000093
:1006A000F0B40D460188090502D5214C7C4402E0D6
:1006B0001F4C7C440E34002100F1240608E002F0B7
:1006C0000F071209E75D42EA03721B097754491CC0
:1006D00052EA0307F3D102780023120704D5702DE4
:1006E00006D009B1022311342246F0BC00F02BB928
:1006F00001231034F8E770B504460D462146106812
:10070000FFF759FE024629462046BDE87040002307
:10071000C6E7D21D22F00703D3E90023C0E7036830
:10072000126843F0200303600823C3610023B7E786
:10073000245000002DE9F05F894604464FF0000A7E
:10074000DFF874B1FB44C0F820A02046E168884778
:10075000002874D0252806D0D4E901219047206ACA
:10076000401C2062F1E700265F462046E16888478A
:100770002028054607DB312D05D2781910F8200C0A
:1007800008B10643F1E7B00701D526F00406C4F826
:100790001CA00027C4F818A02A2D09D0284604F070
:1007A000B3F938B304EB8708303DC8F8185019E0A6
:1007B00059F8041B204604EB87029161E1688847E1
:1007C000012F054618D1E069002820DA26F020061E
:1007D0001DE0D8F8180000EB800005EB4000303831
:1007E000C8F818002046E1688847054604F08CF9EF
:1007F0000028EED1012F0AD02E2D08D12046E16825
:1008000088477F1C0546022F46F02006C4DBA069FE
:10081000002803DA404246F00106A061F00701D04B
:1008200026F010066C2D0BD0682D09D04C2D39D038
:100830006A2D35D0742D35D07A2D33D016E038E0BE
:10084000E1682F4620468847B842054609D16C2FFB
:1008500026D04FF48060E16806432046884705466D
:1008600004E06C2F1AD04FF4807006430DB3A5F14D
:100870004100192802D8203546F400664A46294628
:10088000204626604E46FFF7C1FC80B101280BD000
:10089000F61D26F0070000F1080956E74020E4E7BE
:1008A0008020D8E70020D6E706F104094DE7284666
:1008B00052E7206ABDE8F09FB44F000030B5B0F1B8
:1008C0000A0271F100034FEA900E4EEA817EB0EB0E
:1008D0000E0061EB91014FEA101E4EEA017E10EB13
:1008E0000E0041EB11114FEA102E4EEA016E10EB93
:1008F0000E0041EB11214FEA104E4EEA014E10EB73
:100900000E0041EB1141401841F100014FEAD000C7
:1009100040EA41704FEAD1014FEA810444EA907401
:1009200010EB800544EB01046D1944EB0404521BE9
:10093000A3414FF0000348BF0A3200D530BD401C30
:1009400041F1000130BD2DE9F0470D469946924630
:10095000044600F124080168880604D5E06921F006
:100960001001216000E00120A84201DD471B00E0EA
:100970000027A1697A1902EB0900081AA061207802
:10098000C00602D42046FFF7E6FC002608E0D4E9C2
:1009900001211AF806009047206A401C761C20624C
:1009A0004E45F4DB2078C0060AD52046FFF7D3FC7D
:1009B00006E0D4E9012130209047206A401C2062E3
:1009C000381EA7F10107F4DC07E0D4E9012118F88B
:1009D00005009047206A401C2062281EA5F10105F1
:1009E000F3DC2046FFF7CDFC2078000602D502207C
:1009F000BDE8F0870120FBE72DE9FF4F0C461E46BE
:100A00004FF0FF378BB0D2E90001DDF860800A902B
:100A10008A46C1F30A5505B93D46002108464FF004
:100A20000000BAF1000F00F4400005DA00EB80008E
:100A30004FF4400101EA50004FEA9059B9F1010F1B
:100A400000DDB9460A9850EA4A000ED044F610502C
:100A5000A5F2FF3545432F14B8F1000F1ED07542A3
:100A6000291E1EDDC9F100021CE0B8F1010F4FF094
:100A7000000001D0302103E0F24305E02154401C86
:100A8000B042FBDB30460022002121540B99C1F813
:100A90000880C1E900200FB0BDE8F08FBD1B6D1CC0
:100AA000DEE74A4600DA694206A800F0F3FB06AB2F
:100AB00093E8070003AB83E8070050460A9903F068
:100AC000D1FB8DE80700A0F500501F380090039877
:100AD000002D0ADD42F21F014A460844002303A903
:100AE0000390684603F03AFE09E0A0F500504A463C
:100AF0001F38002303A90390684603F044FE8DE8E5
:100B000007000004000C03D04FF0FF30410800E064
:100B10001046B8F1000F03D00022009215461EE0E7
:100B2000751E05D4FFF7CAFE303262556D1EF9D529
:100B3000B3460122084302D000227F1C04E0207843
:100B4000302801D100227F1E002A099784D01DE0A1
:100B5000112D07DAFFF7B2FE303262556D1C50EAF4
:100B60000102F5D1084302D00098C8B10EE000217F
:100B7000681E05E0235C625C63542254401E491CDD
:100B80008142F7DBAB46A81B401E0990002004F809
:100B90000B000B98099AC0F80880C0E9002B7AE78F
:100BA00011264FF0000857E72DE9F04F884604461C
:100BB000D21D22F0070191B0D1E90001CDE90A016F
:100BC00003F018FF02460B98C00F01D02D2007E05C
:100BD0002068810701D52B2002E0202101EAC00016
:100BE000032A099001D0072A05DB03464146204627
:100BF00000F010FB0BE12078800601D5E06900E0F1
:100C00000620B8F1650F814606D0B8F1660F18D0FE
:100C1000B8F1670F70D131E00020B9F1110F0090E9
:100C200001DB112301E009F101030AAA01A90CA8C3
:100C3000FFF7E2FEDDE90C70002609F101058346AD
:100C400047E001204B4600904FF000470AAA01A957
:100C50000CA8FFF7D1FEDDE90DB00C995D4600262A
:100C600010B909F101000D18B9EB050003D4C0F16A
:100C7000FF3609F10105A5EB09002BE0B9F1010FE1
:100C800001DA4FF001090020B9F1110F0090484638
:100C900001DD112300E003460AAA01A90CA8FFF711
:100CA000ABFEDDE90C704D46002683462078000738
:100CB0000AD4AB4500DA5D4601A8012D04DD4119D7
:100CC00011F8011C302907D04F4502DA17F1040F43
:100CD00004DA012082460FE06D1EEEE7002F02DCF1
:100CE000ED1B3E4403E0781CA84200DD7D1CB81BD0
:100CF00000F1010A4FF000472078000703D4AA450D
:100D000001DB4FF0FF3A0021B7F1004F0DF143082E
:100D10008DF8431024D002202B23002F01DA7F42CC
:100D20002D230A21021EA0F1010000DC5FB197FB18
:100D3000F1FC97FBF1F201FB1C7C17460CF1300C27
:100D400008F801CDEEE7A8F101000370218809053C
:100D500001D5452100E06521A0F1010800F8011C42
:100D600009980FA9A1EB0807FF1D00B10120411947
:100D700001EBEA70A1693844081A401EA06120788E
:100D8000C00602D42046FFF7E6FA099828B1D4E954
:100D900001219047206A401C20622078C00622D59D
:100DA0002046FFF7D8FA1EE0002E04DBB34502DD33
:100DB00001A8805D00E03020D4E901219047206A3D
:100DC000401C2062761CAAF101005FEA000A0AD1E9
:100DD00000F01CFAC0680168405CD4E9012190472A
:100DE000206A401C2062281EA5F10105DCDC07E01A
:100DF000D4E9012118F8010B9047206A401C2062B9
:100E0000381EA7F10107F3DC2046FFF7BAFA0320EA
:100E100011B041E62DE9F04F04460D46D21D22F0F7
:100E2000070089B0D0E900974846394603F0E2FD53
:100E30000246F80F01D02D2307E02068810701D575
:100E40002B2302E0202101EAC0038DF820300BB1F2
:100E5000012000E00020032A824601D0072A04DB9B
:100E60002946204600F0D6F93FE12078800601D4DB
:100E70000D2500E0E569C7F30A560D2D49DA00217A
:100E80004FEA175B08464FF00000002F00F44000C7
:100E900007DA00EB80004FF4400100EBD07001EA6C
:100EA00060008115012901DD4FF0FF3100224FEA7A
:100EB000850CBCF1180F06D31346ACF118004FF0A7
:100EC0008052C24003E04FF4801323FA0CF30CF17C
:100ED0000C0CBCF1200F04D3ACF1200C09FA0CF07F
:100EE00001E007FA0CF000294FF0004801DD18B9C5
:100EF0000FE00ED140450CD319EB02095F4121B937
:100F0000404502D19F4329EA0209BBEB175F00D09D
:100F1000761C2088000502D57B48784402E07A4898
:100F20007844193808AA302302F80A30037C0AF101
:100F30000101002E0AF1020A53546A4602DC4FF006
:100F4000300101E04FF031014FF001088DF8001041
:100F500002D0A6F2FF3603E059EA470100D06B4EFB
:100F6000002D02DC2178090704D54FF002082E215C
:100F70008DF80110C44600210BE0C7F303433F0185
:100F8000C35C491C6D1E02F80830052908F10108F0
:100F900001DA002DF1DC00210CE000EB1973491C93
:100FA0001B786D1E082902F808304FEA091908F16C
:100FB000010801DA002DF0DC21688B0602D516E06D
:100FC000A8F10108E04505DD02EB080313F8013C38
:100FD000302BF5D0B8F1000F09DD02EB080313F850
:100FE000013C2E2B03D1090701D4A8F10108002DE3
:100FF00005DD3E2102F808106D1E08F10108407C55
:10100000002E02F8080008F1010804DA2D207642CB
:1010100002F8080002E02B2002F808000A214FF431
:101020007A70864208F101080BDB96FBF0F330334F
:1010300002F8083096FBF0F308F1010800FB136694
:1010400001E0642E0CDB642096FBF0F3303302F8F1
:10105000083096FBF0F308F1010800FB136601E08D
:101060000A2E06DB96FBF1F0303002F8080008F19A
:10107000010896FBF1F001FB1060303002F8080027
:10108000A16908F1010808EB050202EB0A00081A41
:10109000A0612078C00602D42046FFF75CF9216ADF
:1010A00008AE01EB0A00206204E0D4E9012116F841
:1010B000010B9047BAF1010AF7D22078C00602D599
:1010C0002046FFF748F96E4609E016F8010B3E2866
:1010D0000FD0D4E901219047206A401C2062B8F16A
:1010E0000108F2D22046FFF74CF909B00320BDE811
:1010F000F08F206A2844206203E0D4E901213020E7
:1011000090476D1EEBD3F8E70248000002FCFFFF9A
:1011100010B5436913B1AFF3008001E0FFF754F954
:10112000012010BD127800F124010A7000224A70DB
:101130000122EDE711684FF0FF32E9E710B543698E
:1011400013B1AFF3008001E0FFF7D6F9012010BD25
:10115000128800F1240182840022C2840122EDE77A
:1011600011684FF0FF32E9E72DE9F04116460C46D1
:10117000054600F043F8036893F80101012807D001
:10118000FF2C12D8185D80B101202C70BDE8F081D1
:10119000D3F807013246214603F20713C718284641
:1011A000BC46BDE8F041002360474FF0FF30EDE75B
:1011B000754600F0EBF8AE4605006946534620F050
:1011C0000700854618B020B5FFF79AF8BDE8204023
:1011D0004FF000064FF000074FF000084FF0000BF3
:1011E000AC46ACE8C009ACE8C009ACE8C009ACE862
:1011F000C00921F007018D467047000010B500F0CE
:1012000005F8001D10BD00BF3D39000000487047C3
:10121000600000202DE9F0411F46044603260168C6
:10122000072A01F4006004DB08B116A505E016A545
:1012300003E008B115A500E015A521F0100020601D
:10124000A069C01EA0610FB1401EA0612046FFF73B
:1012500082F84FB1D4E9012138469047206A401CFA
:101260002062C01C206206E0206AFAE7D4E901216E
:1012700015F8010B9047761EF8D22046FFF781F84B
:10128000BDE8F0814E414E006E616E00494E460051
:10129000696E66002DE9F047814616468AB03548EA
:1012A00078440DC88DE80D0032487844801C03ACAA
:1012B0000DC884E80D0041F69B300844372190FBAF
:1012C000F1F290FBF1F5A5F1800501FB12041B3C46
:1012D00002D56442012000E00020DFF898A080469B
:1012E0000027FA44AAF1BE0A0EE0E0070AD032460F
:1012F000684607EB470101230AEB810103F043FA3B
:101300008DE8070064107F1C002CEED1194F7F443C
:10131000AE3F19E0E80715D007EB04100DF1180AED
:1013200090E80E008AE80E00C068F04201D19819DA
:1013300008903246012306A903A803F024FA03AB60
:1013400083E807006D10641C002DE3D14FF001030A
:1013500032466946B8F1000F03A802D003F0FEF947
:1013600001E003F010FAC9E90001C9F808200AB049
:10137000BDE8F0870C45000010B50446AFF30080CF
:101380002046BDE81040FEF7A6BF000000487047A9
:10139000400000200000000030B44FF0013C50F845
:1013A000042B51F8043BCCFA52F4D51A20D1FCB9E5
:1013B00050F8042B51F8043BCCFA52F4D51A17D14B
:1013C000B4B950F8042B51F8043BCCFA52F4D51AB6
:1013D0000ED16CB950F8042B51F8043BCCFA52F4FE
:1013E000D51A05D1002CDAD030BC4FF00000704780
:1013F00029BAB1FA81F111F01801D1F1200084402D
:10140000F2D1CA40CB4012F0FF0213F0FF0330BC10
:10141000D01A704701491820ABBEFEE72600020033
:101420007047000080B502F0D3FA18B1FFE702F070
:1014300053FAFFE702F0C4FA50B3FFE740F2B800F6
:10144000C2F20000006840B9FFE700F04FF940F237
:10145000DC01C2F20001086010E040F2B800C2F204
:1014600000000068012808D1FFE700F03FF940F2D2
:10147000E001C2F200010860FFE7FFE740F2B801B7
:10148000C2F200010868B0FA80F040090860FFE786
:1014900080BD000080B586B08DF817009DF917005B
:1014A00004A903AA02F03AFA9DF9170002A900F074
:1014B0009BF804980399032200F0D4FA0498039946
:1014C000002200F04DFB43F64401C4F2020108681B
:1014D00040F48070086042F20431C4F201010868EF
:1014E00020F44030086042F20401C4F201010868AF
:1014F00020F0407008600298092817DCFFE7029886
:1015000000EB4001072000FA01F242F21001C4F2A0
:101510000101086890430860029800EB4002042033
:1015200000FA02F20868104308601AE0029800EB23
:101530004000A0F11E01072000FA01F242F20C0166
:10154000C4F20101086890430860029800EB400073
:10155000A0F11E02042000FA02F20868104308609D
:10156000FFE742F20801C4F20101086840F00200FE
:10157000086042F22C01C4F20101086800F4700016
:10158000086042F23401C4F20101086820F01F0033
:101590000860029800F01F0208681043086042F2D9
:1015A0000401C4F20101086800F480700860086852
:1015B00020F020000860086840F020000860122039
:1015C00000900121019102F0FFF8009802F09CF8D0
:1015D000019A40F20040C4F20000114600F078F990
:1015E00000F068F906B080BD80B588B08DF81F00A6
:1015F00006919DF91F0005A904AA02F08FF905982C
:101600000021C4F20201884225D1FFE7049803902B
:1016100007281ED80399DFE801F004081C1C0C10F1
:10162000141806990020086014E00699012008604B
:1016300010E00699042008600CE006990520086077
:1016400008E006990620086004E006990720086073
:1016500000E0FFE747E0059840F20041C4F20201D4
:10166000884212D1FFE70498029020B1FFE7029868
:10167000012804D007E006990820086004E00699D4
:101680000920086000E0FFE72CE0059840F6000123
:10169000C4F20201884224D1FFE704980190052892
:1016A0001DD80199DFE801F003070B0F1317069906
:1016B0000A20086014E006990B20086010E00699E3
:1016C0000C2008600CE006990D20086008E00699DF
:1016D0000E20086004E006990F20086000E0FFE794
:1016E000FFE7FFE7FFE708B080BD000042F24C00D3
:1016F000C4F2010000687047D0B502AF88B047F867
:101700000C0C47F8101C42F20801C4F201010868F1
:1017100020F00100086057F8100C694647F8141CC7
:10172000072101EB800121F007026946891A8D46E5
:1017300047F8241C47F8180C57F8100C022809DB4E
:10174000FFE742F20401C4F20101086840F480702E
:101750000860FFE7002047F81C0CFFE757F81C0C57
:1017600057F8101C884212DAFFE757F8241C57F884
:101770000C0C57F81C2C805601EB8201FFF734FF4C
:10178000FFE757F81C0C013047F81C0CE6E742F263
:101790002C01C4F20101086820F47000086057F8B9
:1017A000102C0020CFF6F07000EB025208681043B6
:1017B0000860002047F8200CFFE757F8200C57F886
:1017C000101C88426CDAFFE757F8200C05281CDC57
:1017D000FFE757F8240C57F8201C01EB81021F216A
:1017E00001FA02F342F23401C4F201010A689A4399
:1017F0000A6057F8202C50F8220002EB820200FA0F
:1018000002F208681043086043E057F8200C0B28E8
:101810001FDCFFE757F8240C57F8201C01EB81016F
:10182000A1F11E021F2101FA02F342F23001C4F2BB
:1018300001010A689A430A6057F8202C50F82200E8
:1018400002EB82021E3A00FA02F2086810430860B6
:101850001EE057F8240C57F8201C01EB8101A1F180
:101860003C021F2101FA02F342F22C01C4F20101F1
:101870000A689A430A6057F8202C50F8220002EBBD
:1018800082023C3A00FA02F2086810430860FFE75F
:10189000FFE7FFE757F8200C013047F8200C8CE7F2
:1018A00000F008F857F8140C8546A7F10804A5467F
:1018B000D0BD000042F20801C4F20101086840F006
:1018C00001000860086840F0804008607047000030
:1018D00080B586B00590049103920020029005988F
:1018E000B0F1804F03D1FFE7022002900BE0059892
:1018F00040F20041C4F20001884203D1FFE7032017
:101900000290FFE7FFE742F20801C4F201010191F2
:10191000086820F002000860086840F480600860F1
:101920000598049901F0B2FA0599086820F00100C1
:1019300008600598049901F037FB0199059A5068F1
:1019400020F070005060059A506840F060005060D0
:10195000059AD06920F07000D061059AD06940F0F6
:101960006000D061059A106A40F48070106205989A
:10197000C06A4008059AD063059A106840F00100DB
:101980001060086820F0706008600298421C0868C7
:1019900040EA42600860086820F040500860039800
:1019A000012809D1FFE742F20801C4F201010868E9
:1019B00040F0805008601BE00398022809D1FFE73F
:1019C00042F20801C4F20101086840F000500860CA
:1019D0000DE00398032809D1FFE742F20801C4F2A1
:1019E0000101086840F040500860FFE7FFE7FFE7AB
:1019F00006B080BD40F20501C2F20001012008706E
:101A000040F23001C2F200010022C3F6F0724A60D7
:101A10000020086040F23801C2F200014A6008600C
:101A20007047000080B584B0DDF81CC0DDF818C038
:101A3000039002910192009303980299019A00F099
:101A400011F803980299009A00F05CF80398029943
:101A5000069A00F06FF803980299079A00F080F850
:101A600004B080BD80B584B00390029101920398C8
:101A70000021C4F20201884203D1FFE700F0F2FF27
:101A8000FFE7039840F20041C4F20201884203D10B
:101A9000FFE700F0F1FFFFE7039840F60001C4F212
:101AA0000201884203D1FFE700F0F0FFFFE703984F
:101AB00040F60041C4F20201884203D1FFE700F082
:101AC000EFFFFFE703980299019A00F003F804B0D2
:101AD00080BD000083B00290019100920198410006
:101AE000032000FA01F20299086890430860009808
:101AF0000199490000FA01F2029908681043086050
:101B000003B0704783B002900191009201984100A8
:101B1000032000FA01F202998868904388600098D7
:101B20000199490000FA01F202998868104388601F
:101B300003B0704783B00290019100920199012097
:101B400000FA01F2029948689043486000980199B0
:101B500000FA01F2029948681043486003B07047E8
:101B600083B002900191009201984100032000FA95
:101B700001F20299C8689043C86000980199490031
:101B800000FA01F20299C8681043C86003B07047B8
:101B900083B00290019100920199012000FA01F2B4
:101BA00002994869904348610098019900FA01F24E
:101BB000029948691043486103B0704780B586B008
:101BC0008DF8170004919DF9170003A902AA01F0EE
:101BD000A5FE9DF9170001A96A4600F0F5F80498E2
:101BE0005421484301380199886201994FF6FF70EA
:101BF000C86206B080BD000080B586B08DF81700C1
:101C00009DF9170004A903AA01F088FE9DF91700A9
:101C100002A901AA00F0D8F801980090049803994D
:101C20000222FFF71FFF049803990322FFF76AFFC0
:101C300002980021C4F20101884205D0FFE7029812
:101C4000B0F1804F11D1FFE7039B03F00700810043
:101C5000012000FA01F204986FF0030101EA530138
:101C60000144086A1043086253E0029840F20041C0
:101C7000C4F20001884210D0FFE7029840F600014C
:101C8000C4F20001884208D0FFE7029840F6004104
:101C9000C4F20001884211D1FFE7039B03F0070063
:101CA0008100022000FA01F204986FF0030101EABA
:101CB00053010144086A1043086229E0029844F283
:101CC0000001C4F20101884210D0FFE7029844F2FB
:101CD0000041C4F20101884208D0FFE7029844F6AF
:101CE0000001C4F20101884211D1FFE7039B03F018
:101CF00007008100032000FA01F204986FF003014D
:101D000001EA53010144086A10430862FFE7FFE754
:101D1000FFE70298012101F045F8029953208862FB
:101D200002994FF6FF70C8620299086820F001001E
:101D300008600299886920F0030088610299886927
:101D400020F4407088610299C86920F00300C861DE
:101D50000299C86920F44070C8610299886940F00E
:101D6000010088610299886940F480708861029955
:101D7000C86940F00100C8610299C86940F48070E8
:101D8000C86100996FF0030000EB81010A2000FA9E
:101D900001F20299086A904308620299086A40F0C9
:101DA000010008620299086A40F001000862029985
:101DB000C86840F00100C8600299086840F001005E
:101DC000086006B080BD000080B588B08DF81F00A7
:101DD000069105929DF91F0004A903AA01F09EFD3A
:101DE00004980021C4F20201884256D1FFE703980B
:101DF00002900F284FD80299DFE801F008104D4DEE
:101E00004D18204D2A333C4D4D4D4D4506994FF010
:101E1000804008600599012008603DE006994FF078
:101E20008040086005990220086035E006994FF06F
:101E3000804008600599012008602DE0069940F275
:101E40000040C4F20000086005990120086023E00A
:101E500006990020C4F2010008600599012008607D
:101E60001AE006990020C4F20100086005990220DA
:101E7000086011E006990020C4F20100086005998D
:101E80000320086008E006994FF08040086005993B
:101E90000120086000E0FFE7A1E0049840F2004163
:101EA000C4F2020188425BD1FFE703980338014680
:101EB0000191072852D80199DFE801F0040C16209F
:101EC0002A343E4806994FF0804008600599022068
:101ED000086044E0069940F20040C4F20000086047
:101EE0000599012008603AE0069940F20040C4F2EA
:101EF0000000086005990220086030E0069940F66D
:101F00000000C4F20000086005990120086026E086
:101F1000069940F60000C4F200000860059902200E
:101F200008601CE0069940F60000C4F2000008605A
:101F300005990320086012E0069940F60000C4F2FB
:101F40000000086005990320086008E006994FF03A
:101F50008040086005990320086000E0FFE73DE04D
:101F6000049840F60001C4F20201884235D1FFE72F
:101F7000039806380146009103282CD80099DFE821
:101F800001F0020C1620069940F20040C4F2000055
:101F900008600599012008601EE0069940F20040A3
:101FA000C4F20000086005990220086014E0069958
:101FB00040F20040C4F20000086005990320086068
:101FC0000AE0069940F20040C4F20000086005995A
:101FD0000420086000E0FFE7FFE7FFE7FFE708B045
:101FE00080BD000080B58AB08DF827000891079267
:101FF0009DF9270006A905AA01F090FC9DF927008C
:1020000004A903AAFFF7E0FE08996FF0030000EBB4
:102010008101012000FA01F3049A116A99431162C7
:10202000089900FA01F20499C8689043C8600898BA
:10203000013801460291032860D80299DFE801F0D7
:10204000021930470499886920F0030088610898D4
:102050000399884206D1FFE70499886940F001009E
:10206000886105E00499886940F002008861FFE713
:1020700045E00499886920F44070886108980399C4
:10208000884206D1FFE70499886940F4807088612E
:1020900005E00499886940F400708861FFE72EE04C
:1020A0000499C86920F00300C86108980399884220
:1020B00006D1FFE70499C86940F00100C86105E056
:1020C0000499C86940F00200C861FFE717E004996D
:1020D000C86920F44070C86108980399884206D105
:1020E000FFE70499C86940F48070C86105E004996D
:1020F000C86940F40070C861FFE700E0FFE7089995
:102100006FF0030000EB81010A2000FA01F204994C
:10211000086A904308620798019040B1FFE7019870
:10212000012811D0FFE7019802281AD026E008996B
:102130006FF0030000EB81010A2000FA01F204991C
:10214000086A9043086219E008996FF0030000EBF9
:102150008101022000FA01F20499086A1043086222
:102160000CE008996FF0030000EB81010A2000FAEF
:1021700001F20499086A10430862FFE708996FF0BA
:10218000030000EB8101012000FA01F3049A116AB7
:1021900019431162089900FA01F20499C8681043C2
:1021A000C8600AB080BD000080B540F2A400C2F251
:1021B0000000006838B9FFE740F2A401C2F2000154
:1021C000012008600FE040F2A400C2F200000068A5
:1021D000012807D1FFE740F2A401C2F2000100206C
:1021E0000860FFE7FFE740F2A400C2F200000268C7
:1021F0000020C4F202000521FFF7CAFC80BD0000E8
:1022000040F2CC01C2F200010020086040F205015A
:10221000C2F20001087040F21000C2F2000090ED1E
:10222000020B40F23001C2F2000181ED000B90ED93
:10223000020B40F23800C2F2000080ED000B40F2C9
:10224000A101C2F2000142200870704780B540F23F
:10225000CC00C2F20000016801310160006804286E
:1022600007DBFFE740F2CC01C2F200010320086067
:10227000FFE740F2CC00C2F20000006801F034FF3A
:1022800080BD000080B540F2CC00C2F200000168C1
:1022900001390160006810F1040F08DCFFE740F22B
:1022A000CC01C2F200016FF002000860FFE740F2CB
:1022B000CC00C2F20000006801F016FF80BD0000F3
:1022C00040F2CC01C2F200010020086040F205019A
:1022D000C2F200010120087040F2BC01C2F200010C
:1022E0000A6840F21000C2F2000000EBC20292ED58
:1022F000000B40F23002C2F2000282ED000B0968CE
:1023000000EBC10090ED000B40F23800C2F200007B
:1023100080ED000B40F2A101C2F2000146200870DE
:102320007047000080B588B08DF81F008DED060A5B
:102330009DF91F0005A904AA01F0F0FA9DF91F00FC
:1023400003A902AA00F018FA0398C06A013000EE4F
:10235000100AB8EE400A9DED061A20EE010AB7EE0B
:10236000001A30EE010A8DED010A0298012808D109
:10237000FFE79DED010A0398BCEEC00A80ED0D0A4F
:1023800026E00298022808D1FFE79DED010A039894
:10239000BCEEC00A80ED0E0A19E00298032808D1AD
:1023A000FFE79DED010A0398BCEEC00A80ED0F0A1D
:1023B0000CE00298042808D1FFE79DED010A03987C
:1023C000BCEEC00A80ED100AFFE7FFE7FFE7FFE77A
:1023D00008B080BD80B588B08DF81F009DF91F0042
:1023E00006A905AA01F09AFA9DF91F0004A903AAFB
:1023F00000F0C2F90698059902220192FFF732FB1C
:10240000019A06980599FFF77DFB06980599002229
:10241000FFF790FB069805990122FFF7A1FB0598AD
:10242000002861D4FFE7059807285DDCFFE70498E2
:102430000021C4F20101884205D0FFE70498B0F101
:10244000804F0AD1FFE705988100012000FA01F2D0
:102450000699086A1043086245E0049840F200417A
:10246000C4F20001884210D0FFE7049840F6000152
:10247000C4F20001884208D0FFE7049840F600410A
:10248000C4F2000188420AD1FFE7059881000220CA
:1024900000FA01F20699086A1043086222E00498E3
:1024A00044F20001C4F20101884210D0FFE7049811
:1024B00044F20041C4F20101884208D0FFE70498C9
:1024C00044F60001C4F2010188420AD1FFE70598F1
:1024D0008100032000FA01F20699086A104308629D
:1024E000FFE7FFE7FFE76EE0059808286ADBFFE7F4
:1024F00005980F2866DCFFE704980021C4F201016B
:10250000884205D0FFE70498B0F1804F0DD1FFE776
:1025100005996FF01F0000EB8101012000FA01F224
:102520000699486A104348624BE0049840F2004123
:10253000C4F20001884210D0FFE7049840F6000181
:10254000C4F20001884208D0FFE7049840F6004139
:10255000C4F2000188420DD1FFE705996FF01F001A
:1025600000EB8101022000FA01F20699486A10434B
:10257000486225E0049844F20001C4F20101884257
:1025800010D0FFE7049844F20041C4F201018842F0
:1025900008D0FFE7049844F60001C4F20101884224
:1025A0000DD1FFE705996FF01F0000EB81010320BB
:1025B00000FA01F20699486A10434862FFE7FFE714
:1025C000FFE7FFE7FFE70498012100F05FFC0499B3
:1025D000086820F0100008600498C06A4008029063
:1025E000039801281DD1FFE70499886920F0700045
:1025F00088610499886940F060008861049988695D
:1026000040F0080088610298049948630499086AB8
:1026100020F0020008620499086A40F00100086294
:1026200065E0039802281DD1FFE70499886920F42A
:10263000E04088610499886940F4C0408861049949
:10264000886940F40060886102980499886304995D
:10265000086A20F0200008620499086A40F010001F
:10266000086243E0039803281DD1FFE70499C86975
:1026700020F07000C8610499C86940F06000C8612A
:102680000499C86940F00800C86102980499C863B9
:102690000499086A20F4007008620499086A40F4FA
:1026A0008070086221E0039804281DD1FFE7049997
:1026B000C86920F4E040C8610499C86940F4C0408A
:1026C000C8610499C86940F40060C861029804991F
:1026D00008640499086A20F4005008620499086AA2
:1026E00040F480500862FFE7FFE7FFE7FFE7049848
:1026F0000021C4F20101884206D1FFE70499486C29
:1027000040F400404864FFE70499086840F0010085
:10271000086008B080BD000080B586B08DF8170055
:1027200004919DF9170003A902AA01F0F7F89DF999
:10273000170001A96A4600F01FF80198049900F0FB
:1027400033FC06B080BD000080B586B08DF8170060
:1027500004919DF9170003A902AA01F0DFF89DF981
:10276000170001A96A4600F007F80198049900F0E3
:1027700093FC06B080BD000080B588B08DF81F00C6
:10278000069105929DF91F0004A903AA01F0C6F85D
:1027900004980021C4F20201884256D1FFE7039851
:1027A00002900F284FD80299DFE801F008104D4D34
:1027B0004D18204D2A333C4D4D4D4D4506994FF057
:1027C000804008600599012008603DE006994FF0BF
:1027D0008040086005990220086035E006994FF0B6
:1027E000804008600599012008602DE0069940F2BC
:1027F0000040C4F20000086005990120086023E051
:1028000006990020C4F201000860059901200860C3
:102810001AE006990020C4F2010008600599022020
:10282000086011E006990020C4F2010008600599D3
:102830000320086008E006994FF080400860059981
:102840000120086000E0FFE7A1E0049840F20041A9
:10285000C4F2020188425BD1FFE7039803380146C6
:102860000191072852D80199DFE801F0040C1620E5
:102870002A343E4806994FF08040086005990220AE
:10288000086044E0069940F20040C4F2000008608D
:102890000599012008603AE0069940F20040C4F230
:1028A0000000086005990220086030E0069940F6B3
:1028B0000000C4F20000086005990120086026E0CD
:1028C000069940F60000C4F2000008600599022055
:1028D00008601CE0069940F60000C4F200000860A1
:1028E00005990320086012E0069940F60000C4F242
:1028F0000000086005990420086008E006994FF080
:102900008040086005990320086000E0FFE73DE093
:10291000049840F60001C4F20201884235D1FFE775
:10292000039806380146009103282CD80099DFE867
:1029300001F0020C1620069940F20040C4F200009B
:1029400008600599012008601EE0069940F20040E9
:10295000C4F20000086005990220086014E006999E
:1029600040F20040C4F200000860059903200860AE
:102970000AE0069940F20040C4F2000008600599A0
:102980000420086000E0FFE7FFE7FFE7FFE708B08B
:1029900080BD000080B58CB08DF82F000A919DF9A4
:1029A0002F0009A908AA00F0B9FF9DF92F0007A977
:1029B00006AAFFF7E1FE002005900798806A0490C0
:1029C00043F60800C4F2020000688007002803D51F
:1029D000FFE7542005900BE043F60800C4F2020024
:1029E0000068002018B9FFE710200590FFE7FFE717
:1029F000059804990131B0FBF1F000EE100AB8EE31
:102A0000400A8DED030A9DED0A0AB8EE400A9DEDDD
:102A1000031A20EE010ABFEE001A30EE010ABCEEE6
:102A2000C00A8DED020A069801380146019103287B
:102A300014D80199DFE801F002060A0E02980799FE
:102A400048630CE002980799886308E002980799A8
:102A5000C86304E002980799086400E0FFE70CB03F
:102A600080BD000043F63001C4F20201086840F066
:102A7000010008607047000043F63001C4F2020113
:102A8000086840F0020008607047000043F630011B
:102A9000C4F20201086840F00400086070470000BA
:102AA00043F63001C4F20201086840F008000860F3
:102AB0007047000081B043F60041C4F2020108688B
:102AC00020F007000860086840F00200086043F644
:102AD0000001C4F20201086840F001000860FFE74D
:102AE00043F60000C4F2020000688007002801D409
:102AF000FFE7F5E743F60001C4F20201086820F0A1
:102B00008070086043F60402C4F20202009210686A
:102B100020F480001060106810601068542363F384
:102B20008E1010601068082363F3050010601068B1
:102B300020F440301060086840F080700860FFE7C3
:102B400043F60000C4F20200006800F000710020AB
:102B5000B0EB516F01D0FFE7F2E743F60801C4F292
:102B60000201086820F003000860086840F00200D5
:102B70000860FFE743F60800C4F20200006800F0B6
:102B80000C00082801D0FFE7F4E743F60801C4F27F
:102B90000201086820F0F0000860086820F4E050A6
:102BA0000860086840F480500860086820F46040BD
:102BB000086040F20001C2F200014BF60050C0F282
:102BC0000150086001B0704780B500F001F880BD89
:102BD00040F2C401C2F20001086801300860704789
:102BE00080B582B04EF21001CEF2000100200860E4
:102BF0000A6842F004020A604EF21403CEF20003A7
:102C000044F61F02C0F201021A604EF21802CEF220
:102C100000021060086840F002000860086840F098
:102C2000010008604FF0FF3001900F2100F0EEFD31
:102C3000019800F081FD02B080BD00004EF6885181
:102C4000CEF20001086840F4700008607047000090
:102C500080B582B040F60000C4F2000000F0CCFE67
:102C6000A8B1FFE740F2C801C2F2000108680130D4
:102C7000086040F2B001C2F200010868013008604B
:102C800040F60000C4F2000000F03EFEFFE740F610
:102C90000000C4F20000012100F0A2FEB0B1FFE785
:102CA00040F63400C4F2000090ED000AB8EE400A8D
:102CB00040F2D000C2F2000080ED000A40F60000B1
:102CC000C4F20000012100F011FE59E040F60000BE
:102CD000C4F20000022100F083FE00284FD0FFE77D
:102CE00040F63800C4F2000090ED000AB8EE400A49
:102CF00040F2D400C2F2000080ED000A90ED000A1C
:102D000040F2D000C2F2000090ED001A30EE410A0D
:102D100040F62C00C4F200000068013040F2C80107
:102D2000C2F2000101910968484301EE100AB8EEB1
:102D3000411A30EE010A10EE100A02F03FFC41EC9D
:102D4000100B51EC100B9FED100B53EC102B02F0FD
:102D5000B9F941EC100B51EC100B01F009FF01998E
:102D600040F2D802C2F2000210600020086040F673
:102D70000000C4F20000022100F0B8FDFFE7FFE709
:102D800002B080BD00BF00BF7B14AE47E17A843F34
:102D900081B000900099C86840F00100C86001B09F
:102DA0007047000080B584B00390029103980299A7
:102DB00000F06CF80398FFF7EBFF002001900398F8
:102DC0000021C4F20101884203D1FFE719200190DC
:102DD00050E00398B0F1804F03D1FFE71C20019031
:102DE00047E0039840F20041C4F20001884203D159
:102DF000FFE71D2001903BE0039840F60001C4F27C
:102E00000001884203D1FFE71E2001902FE00398C4
:102E100040F60041C4F20001884203D1FFE73220AE
:102E2000019023E0039844F20001C4F201018842BA
:102E300003D1FFE71820019017E0039844F2004106
:102E4000C4F20101884203D1FFE7192001900BE091
:102E5000039844F60001C4F20101884203D1FFE760
:102E60001A200190FFE7FFE7FFE7FFE7FFE7FFE733
:102E7000FFE7FFE79DF9040000F076FC9DF90400F0
:102E8000022100F0E5FC04B080BD000080B582B0F6
:102E90000190009101980021C4F20101884209D1FA
:102EA000FFE743F64401C4F20201086840F0010064
:102EB000086068E00198B0F1804F09D1FFE743F660
:102EC0004001C4F20201086840F00100086059E0C6
:102ED000019840F20041C4F20001884209D1FFE7A5
:102EE00043F64001C4F20201086840F002000860A5
:102EF00047E0019840F60001C4F20001884209D180
:102F0000FFE743F64001C4F20201086840F0040004
:102F1000086035E0019840F60041C4F200018842A3
:102F200009D1FFE743F64001C4F20201086840F00E
:102F30000800086023E0019844F20001C4F2010196
:102F4000884209D1FFE743F64401C4F20201086850
:102F500040F48030086011E0019844F60001C4F2AA
:102F60000101884209D1FFE743F64401C4F202019E
:102F7000086840F480200860FFE7FFE7FFE7FFE70D
:102F8000FFE7FFE7FFE70198009900F00DF80199CE
:102F9000086820F0100008600199086840F00100FE
:102FA000086002B080BD000086B00590049143F631
:102FB0000800C4F2020000688007002806D5FFE779
:102FC0004BF60050C0F2015002900EE043F60800AC
:102FD000C4F202000068002030B9FFE742F200406E
:102FE000C0F2F4000290FFE7FFE70598B0F1804FD0
:102FF00008D0FFE7059840F60041C4F2000188427E
:1030000023D1FFE7029847F22361C7F6B311A0FB73
:103010000110800BADF80E000298BDF80E10B0FB49
:10302000F1F044F6D351C1F26201A0FB0110800916
:10303000049948430190BDF80E0001380599886253
:10304000019801380599C86224E0029847F223618B
:10305000C7F6B311A0FB0110800BADF80E0002986B
:10306000BDF80E10B0FBF1F044F6D351C1F262018D
:10307000A0FB0110800904994843ADF80200BDF897
:103080000E00013805998862BDF8020001380599E3
:10309000C862FFE706B0704786B00590049143F61A
:1030A0000800C4F2020000688007002806D5FFE788
:1030B0004BF60050C0F2015002900EE043F60800BB
:1030C000C4F202000068002030B9FFE742F200407D
:1030D000C0F2F4000290FFE7FFE70598B0F1804FDF
:1030E00008D0FFE7059840F60041C4F2000188428D
:1030F0001FD1FFE702984DF68361C4F21B31A0FB9C
:103100000120800CADF80E000298BDF80E20B0FB37
:10311000F2F0A0FB0110800C049948430190BDF827
:103120000E00013805998862019801380599C86236
:1031300020E002984DF68361C4F21B31A0FB012010
:10314000800CADF80E000298BDF80E20B0FBF2F036
:10315000A0FB0110800C04994843ADF80200BDF8B3
:103160000E00013805998862BDF802000138059902
:10317000C862FFE706B0704780B582B00190019940
:1031800041F20000C4F2010000F02EF802B080BD50
:1031900080B582B069464FF4165048600A20086036
:1031A00041F20000C4F2010009220023C4F202032C
:1031B000194600F03DF902B080BD000080B582B034
:1031C00069464FF4165048600320086044F20040FE
:1031D000C4F2000002220023C4F20203194600F0E8
:1031E00027F902B080BD000080B586B0059004913B
:1031F0000599C86820F40050C860059900208860CF
:1032000043F2A070C4F6A0400390059844F2004138
:10321000C4F20001884209D1FFE79DED030AB0EE38
:10322000001A80EE010A8DED030AFFE79DED030A07
:103230000498000101EE100AB8EE411A80EE010A6E
:103240008DED020A9DED020ABCEEC00A8DED010A69
:103250009DED020A9DED011AB8EE411A30EE410AC9
:10326000B3EE001A20EE010A10EE100A02F0A6F9E1
:1032700041EC100B01F0D8FB51EC100B01F0B8FE43
:1032800000900199009840EA01120599886810435E
:1032900088600599C86840F40050C86006B080BDD9
:1032A00080B500F0B1FB002800F08180FFE700F05E
:1032B0007FF8014640F2A000C2F2000001700078E1
:1032C0004D2807D1FFE740F2C001C2F200014D20B6
:1032D00008700FE040F2A000C2F200000078412820
:1032E00007D1FFE740F2C001C2F20001412008709F
:1032F000FFE7FFE740F2C000C2F2000000784D286F
:1033000054D1FFE740F2A000C2F2000000783E284E
:1033100003D1FFE700F0B6FE47E040F2A000C2F2A2
:10332000000000783C2803D1FFE700F079FE3BE085
:1033300040F2A000C2F200000078642803D1FFE749
:10334000FEF7A0FF2FE040F2A000C2F200000078DC
:10335000612803D1FFE7FEF779FF23E040F2A000E8
:10336000C2F200000078772803D1FFE7FEF7A8FF3C
:1033700017E040F2A000C2F200000078732803D1E9
:10338000FFE7FEF73DFF0BE040F2A000C2F20000B5
:103390000078452803D1FFE7FEF72CFBFFE7FFE7A6
:1033A000FFE7FFE7FFE7FFE7FFE7FFE7FFE780BD96
:1033B00080B541F20000C4F2010000F029F880BDA0
:1033C00080B582B0019000910199009A41F200000D
:1033D000C4F2010000F066F902B080BD82B0019035
:1033E00001986421414344F62510C2F29240A1FBAA
:1033F0000020091A00EB510080080090FFE70098B8
:103400000138009008B1FFE7F9E702B0704700000B
:1034100081B00090FFE70098006800F020002028AD
:1034200001D0FFE7F7E700984068C0B201B07047ED
:1034300080B58AB0DDF834C0DDF830C0099008915D
:10344000079206930898079902220392FEF70AFB57
:103450000898079900220492FEF76CFB049A0898DA
:103460000799FEF77DFB0898079903220592FEF75E
:1034700049FB039A06980C99FEF7F4FA049A069809
:103480000C99FEF757FB049A06980C99FEF768FB17
:10349000059A06980C99FEF735FB099841F2004110
:1034A000C4F20101884237D1FFE7079807280ADCF8
:1034B000FFE707988100082000FA01F20899086ADE
:1034C000104308620CE007996FF01F0000EB8101C8
:1034D000082000FA01F20899486A10434862FFE7A1
:1034E0000C9807280ADCFFE70C988100082000FAF6
:1034F00001F20699086A104308620CE00C996FF01B
:103500001F0000EB8101082000FA01F20699486AC9
:1035100010434862FFE736E0079807280ADCFFE718
:1035200007988100072000FA01F20899086A104301
:1035300008620CE007996FF01F0000EB8101072083
:1035400000FA01F20899486A10434862FFE70C98B4
:1035500007280ADCFFE70C988100072000FA01F237
:103560000699086A104308620CE00C996FF01F007E
:1035700000EB8101072000FA01F20699486A104326
:103580004862FFE7FFE7099841F20001C4F2010138
:10359000884209D1FFE743F64401C4F202010868FA
:1035A00040F0100008601AE0099844F20041C4F2AB
:1035B0000001884209D1FFE743F64001C4F202014D
:1035C000086840F40030086008E043F64401C4F2A3
:1035D0000201086840F020000860FFE7FFE7099952
:1035E000C86820F40050C8600999C86840F2FF72AA
:1035F0009043C8600999C86841F6FF729043C8605B
:103600000999C86820F40040C8600999086943F620
:10361000FF729043086109980D99FFF7E5FD09993C
:10362000C86840F00C00C8600999C86840F40050B0
:10363000C8600999C86840F02000C860099841F244
:103640000001C4F20101884209D1FFE72520029060
:10365000032100F01FF9029800F09EF81AE0099883
:1036600044F20041C4F20001884209D1FFE726205C
:103670000190032100F00EF9019800F08DF808E0A8
:1036800047200090032100F005F9009800F084F82D
:10369000FFE7FFE70999C86840F40050C8600AB026
:1036A00080BD000080B584B003900291019200209B
:1036B0000090FFE700980199884216D2FFE7FFE7E4
:1036C000039800680006002801D4FFE7F8E7029895
:1036D0000099405C039948604FF49670FFF77EFEB6
:1036E000FFE7009801300090E4E7FFE703980068E7
:1036F0004006002801D4FFE7F8E70399086820F0A6
:103700004000086004B080BD81B08DF803009DF9D1
:10371000030000280ED4FFE79DF9031001F01F02FB
:10372000012090404A094EF20011CEF2000141F80A
:103730002200FFE701B0704781B08DF803009DF9CA
:10374000030000280ED4FFE79DF9031001F01F02CB
:10375000012090404A094EF20011CEF2000141F8DA
:103760002200FFE701B0704781B08DF803009DF99A
:10377000030000280ED4FFE79DF9031001F01F029B
:10378000012090404A094EF20011CEF2000141F8AA
:103790002200FFE701B0704781B08DF803009DF96A
:1037A000030000280ED4FFE79DF9031001F01F026B
:1037B000012090404A094EF20011CEF2000141F87A
:1037C0002200FFE701B0704782B08DF8070000913A
:1037D0009DF9070000280AD4FFE7009800019DF931
:1037E00007104EF20042CEF2000288540BE000981F
:1037F00000019DF8071001F00F014EF61452CEF2B1
:1038000000028854FFE702B07047000082B08DF8D4
:10381000070000919DF9070000280AD4FFE70098EF
:1038200000019DF907104EF20042CEF200028854CA
:103830000BE0009800019DF8071001F00F014EF613
:103840001452CEF200028854FFE702B07047000025
:1038500082B08DF8070000919DF9070000280AD476
:10386000FFE7009800019DF907104EF20042CEF2EA
:10387000000288540BE0009800019DF8071001F049
:103880000F014EF61452CEF200028854FFE702B048
:103890007047000082B08DF8070000919DF9070085
:1038A00000280AD4FFE7009800019DF907104EF2A6
:1038B0000042CEF2000288540BE0009800019DF80F
:1038C000071001F00F014EF61452CEF20002885498
:1038D000FFE702B07047000042F20001C4F20101AC
:1038E000086820F0200008607047000082B0019056
:1038F00000910099012000FA01F2019908699043B2
:10390000086102B07047000081B00090009908691A
:1039100020F00100086101B07047000085B08DF80B
:103920001300039102929DF8130000F00F00019024
:103930000198029908609DF9130000110090009809
:1039400030B9FFE703990020C4F20200086035E0B7
:103950000098012807D1FFE7039940F20040C4F224
:103960000200086029E00098022807D1FFE70399C8
:1039700040F60000C4F2020008601DE00098032831
:1039800007D1FFE7039940F60040C4F20200086047
:1039900011E00098072807D1FFE7039941F600409E
:1039A000C4F20200086005E003990020C4F202009E
:1039B0000860FFE7FFE7FFE7FFE7FFE705B07047B5
:1039C00042F20000C4F201000068C0F340007047FA
:1039D00042F20000C4F201000068C0F340107047DA
:1039E00082B001900091019800690099C84000F0F0
:1039F000010002B07047000081B00090009800699B
:103A000000F0010001B0704780B541F20000C4F23F
:103A1000010000F001F880BD81B0009000980068BE
:103A200000F0200001B0704780B58CB000F064FA5F
:103A300040F20500C2F200000890027840F6000053
:103A4000C4F2020009900221FEF7A2F80899099831
:103A50000A780321FEF79CF840F2A800C2F20000A9
:103A600090F900000A9040F23000C2F2000090EDA0
:103A7000000B51EC100B01F07BF801460A9800EEA8
:103A8000101AFEF74FFC40F20400C2F2000090F959
:103A900000000B9040F23800C2F2000090ED000BE5
:103AA00051EC100B01F064F801460B9800EE101A6F
:103AB000FEF738FCFFE740F2C000C2F200000078D9
:103AC000412840F05081FFE740F2B000C2F2000010
:103AD000006858B1FFE7FEF767FB00F0AFF940F26E
:103AE000B001C2F2000100200860FFE740F2D800F8
:103AF000C2F20000006801F061FD41EC100B9FED87
:103B0000C81B53EC112B51EC100B01F0DBFA41EC0C
:103B1000100B51EC100B9FEDC40B53EC102B01F06C
:103B20000DF941EC100B51EC100B9FEDC10B53EC58
:103B3000102B01F003F941EC100B51EC100B01F0CC
:103B400017F840F2B401C2F20001086040F2DC0054
:103B5000C2F200000068C0087C281ED8FFE740F2CF
:103B6000E000C2F200000068C0087C2815D8FFE71A
:103B700040F21000C2F2000090ED060B40F230015E
:103B8000C2F2000181ED000B90ED060B40F238000F
:103B9000C2F2000080ED000B73E040F2DC00C2F2E4
:103BA00000000068B0F57A7F1ED9FFE740F2E00020
:103BB000C2F200000068C0087C2815D8FFE740F278
:103BC0001000C2F2000090ED060B40F23001C2F28C
:103BD000000181ED000B90ED020B40F23800C2F2C3
:103BE000000080ED000B4BE040F2DC00C2F2000070
:103BF0000068C0087C281ED8FFE740F2E000C2F24F
:103C000000000068B0F57A7F15D9FFE740F2100098
:103C1000C2F2000090ED020B40F23001C2F200014E
:103C200081ED000B90ED060B40F23800C2F200006F
:103C300080ED000B23E040F2DC00C2F200000068DF
:103C4000B0F57A7F1AD9FFE740F2E000C2F2000037
:103C50000068B0F57A7F11D9FFE740F23001C2F277
:103C600000010022C3F6F0724A600020086040F2B2
:103C70003801C2F200014A600860FFE7FFE7FFE792
:103C8000FFE740F2B400C2F2000090ED000AB1EE8E
:103C90000C1AB4EE410AF1EE10FA11DAFFE740F225
:103CA0003001C2F200010022C3F6F0724A60002027
:103CB000086040F23801C2F200014A6008600FE07B
:103CC00040F2B400C2F2000090ED000A9FED5A1AD3
:103CD000B4EE410AF1EE10FA01DDFFE7EBE6FFE793
:103CE00040F20500C2F200000490027840F60000A5
:103CF000C4F2020005900221FDF74AFF04990598DD
:103D00000A780321FDF744FF40F2A800C2F2000048
:103D100090F90000069040F23000C2F2000090EDF1
:103D2000000B51EC100B00F023FF0146069800EE4B
:103D3000101AFEF7F7FA40F20400C2F2000090F900
:103D40000000079040F23800C2F2000090ED000B36
:103D500051EC100B00F00CFF0146079800EE101A12
:103D6000FEF7E0FAFFE740F2C000C2F20000007880
:103D70004D2854D1FFE740F2B000C2F200000068C5
:103D8000022809D3FFE700F059F840F2B001C2F26F
:103D9000000100200860FFE740F20500C2F20000C9
:103DA0000090027840F60000C4F202000190022167
:103DB000FDF7EEFE009901980A780321FDF7E8FE71
:103DC00040F2A800C2F2000090F90000029040F218
:103DD0003000C2F2000090ED000B51EC100B00F02F
:103DE000C7FE0146029800EE101AFEF79BFA40F259
:103DF0000400C2F2000090F90000039040F2380085
:103E0000C2F2000090ED000B51EC100B00F0B0FE80
:103E10000146039800EE101AFEF784FAFFE74AE61F
:103E2000000000000040754000000000000000405D
:103E3000000000000000244000803B4580B586B0B3
:103E400040F2BC00C2F20000026840F2AB00C2F2D5
:103E50000000049045F2E771C0F600010091FCF704
:103E600061FA009940F2CC00C2F20000026840F210
:103E7000A900C2F200000290FCF754FA45F2CB70A0
:103E8000C0F600000521FFF79BFA40F2C000C2F225
:103E9000000001210191FFF793FA45F2D170C0F6BD
:103EA000000006210391FFF78BFA019940F2A1006F
:103EB000C2F20000FFF784FA039945F2D870C0F609
:103EC0000000FFF77DFA029802210591FFF778FACA
:103ED000039945F2DF70C0F60000FFF771FA04980D
:103EE0000599FFF76DFA059945F2C870C0F6000014
:103EF000FFF766FA06B080BD80B58EB0FEF7DAFD3A
:103F0000FEF76EFEFFF75AF9694600200A904860F6
:103F100008600020C4F20200052101230D931A4617
:103F2000FDF780FDFFF734F94FF41650FFF724F941
:103F30000D9A40F60000C4F20200039002210C9199
:103F4000FDF790FD03980A9A0C99FDF7F3FD03988D
:103F50000D9A03210491FDF785FD039804990A9AAF
:103F6000FDF7E8FD1020FDF795FA1120FDF792FA14
:103F70000C9940F20C00C2F20000FDF7BDFB40F2CC
:103F8000A800C2F20000059090F90000FEF722FAA6
:103F9000059890F9000040F20801C2F20001079173
:103FA00091ED000ABCEEC00A10EE101AFEF7B4FB49
:103FB00040F20400C2F20000069090F90000FEF703
:103FC00009FA0698079990F9000091ED000ABCEEF5
:103FD000C00A10EE101AFEF79FFB06200890FEF7AD
:103FE000F9F908984CF25031FEF7AEFB08980A2117
:103FF0000991FEF7CFFC16200B90FDF7FDFD099906
:104000000B98FDF7DBFD0A9A0B980D99FDF7EAFF77
:104010000B980C990D9AFDF7E5FF0EB080BD0000DE
:1040200040F2BC00C2F20000016801390160006882
:10403000B0F1FF3F07DCFFE740F2BC01C2F2000134
:1040400000200860FFE740F2BC01C2F200010A68EC
:1040500040F21000C2F2000000EBC20292ED000B31
:1040600040F23002C2F2000282ED000B096800EB60
:10407000C10090ED000B40F23800C2F2000080ED6C
:10408000000B704740F2BC00C2F200000168013131
:1040900001600068052807DBFFE740F2BC01C2F2BF
:1040A000000104200860FFE740F2BC01C2F20001F9
:1040B0000A6840F21000C2F2000000EBC20292ED6A
:1040C000000B40F23002C2F2000282ED000B0968E0
:1040D00000EBC10090ED000B40F23800C2F200008E
:1040E00080ED000B7047000084B001900198013012
:1040F000B8B9FFE740F23001C2F200010020C3F678
:10410000D07048600020086040F23801C2F200011F
:1041100043F23330C3F6E37048604FF03330086049
:104120009CE001980230B8B9FFE740F23001C2F2DA
:1041300000010020C3F6D07048600020086040F203
:104140003801C2F2000146F26660C3F6E6704860CC
:104150004FF06630086080E001980330A0B9FFE7B7
:1041600040F23001C2F2000100204860086040F2D5
:104170003801C2F2000146F26660C3F6E67048609C
:104180004FF06630086067E00198012817D1FFE71B
:1041900040F23001C2F2000143F23330C3F6E37063
:1041A00048604FF03330086040F23801C2F200013D
:1041B0000020C3F6D0704860002008604BE00198F2
:1041C000022817D1FFE740F23001C2F2000146F2A7
:1041D0006660C3F6E67048604FF06630086040F2F3
:1041E0003801C2F200010020C3F6D0704860002000
:1041F00008602FE00198032814D1FFE740F2300156
:10420000C2F2000146F26660C3F6E67048604FF005
:104210006630086040F23801C2F2000100204860B8
:10422000086016E0019898B9FFE740F23001C2F249
:10423000000146F26662C3F6E6724A604FF06630ED
:10424000086040F23801C2F200014A600860FFE7EE
:10425000FFE7FFE7FFE7FFE7FFE7FFE79DED020B63
:1042600004B070475FEA400C08BF91F0000F4FEABE
:104270008C234FEAC12243EA51514FEA1C5018BF28
:1042800000F5F0404FEA300018BF41F000415FEA0E
:104290006C5C00F02980BCF1FF3F08BF40F080401B
:1042A0007047130C06BF12044FF0100C4FF0000CB7
:1042B000130E04BF12020CF1080C130F04BF1201FD
:1042C0000CF1040C930F04BF92000CF1020CD30FFD
:1042D00004BF52000CF1010C11464FF00002A0F196
:1042E0001F00A0EB0C00704711F0004F08BF704793
:1042F00031F000413FF4D5AF0B0C06BF09044FF07D
:10430000100C4FF0000C0B0E04BF09020CF1080C4E
:104310000B0F04BF09010CF1040C8B0F04BF8900C3
:104320000CF1020CCB0F04BF49000CF1010CCCF1D5
:10433000200322FA03F341EA030102FA0CF2A0EB94
:104340000C0000F10100704723F07F4720F07F4C04
:1043500080EA030000F00040ACEB070303F57C5358
:1043600003F1FF032DE9804909B44FEA144324EA1D
:1043700003484FEA154B25EA0B4E0FF2042606EBD5
:1043800013273E7803FB0667C7F5000707FB06F611
:104390004FEAD64606F102064FEA543707FB066C91
:1043A000CCF1005C4FEA1C472CEA074C0CFB06F5ED
:1043B00007FB06F404EB15464FEA961649085FEA38
:1043C000320234BF00204FF000404FEAD13706FBE5
:1043D00007FC4FEA1C4C0CFB0BF7D21B03FB0CF742
:1043E00061EB07010CFB0EF7B0EB074072EB1742D5
:1043F0000CFB08F734BFA2EB0742B2EB074261EBBC
:1044000017414FEA0C444FEA910706FB07FC4FEABD
:104410001C4C0CFB0BF7B0EBC74072EB573203FBA5
:104420000CF734BFA2EBC742B2EBC74261EB573186
:104430000CFB0EF7B0EBC70072EB57720CFB08F7E2
:1044400034BFA2EBC702B2EBC70261EB57714FEA70
:10445000816141EA92114FEA826242EA90124FEA88
:10446000806004EBCC04039F4FEAD13706FB07FCC6
:104470004FEA1C4C0CFB0BF7D21B03FB0CF761EB58
:1044800007010CFB0EF7B0EB074072EB17420CFB79
:1044900008F734BFA2EB0742B2EB074261EB1741CA
:1044A0004FEA8C5504EB9C244FEA910706FB07FC6E
:1044B0004FEA1C4C0CFB0BF7B0EBC74072EB5732CA
:1044C00003FB0CF734BFA2EBC742B2EBC74261EB70
:1044D00057310CFB0EF7B0EBC70072EB57720CFBB9
:1044E00008F734BFA2EBC702B2EBC70261EB57710A
:1044F0004FEA816141EA92114FEA826242EA9012E8
:104500004FEA806015EB4C2544F100044FEAD137A7
:1045100006FB07FC4FEA1C4C0CFB0BF7D21B03FB02
:104520000CF761EB07010CFB0EF7B0EB074072EBE9
:1045300017420CFB08F734BFA2EB0742B2EB07426D
:1045400061EB17414FEA813141EA92414FEA8232F1
:1045500042EA90424FEA80304FEA0C7615EB1C1588
:1045600044F1000448EA03434EEA0B484FF0000EC2
:10457000B2EB080C71EB030724BF624639464EEBE1
:104580000E0E4FF0000B0018524149414BEB0B0B44
:10459000B2EB080C71EB03077BF1000B24BF624602
:1045A00039464EEB0E0E4FF0000B001852414941B8
:1045B0004BEB0B0BB2EB080C71EB03077BF1000B21
:1045C00024BF624639464EEB0E0E51EA020718BF71
:1045D00046F0010616EB0E7655F1000254F100018B
:1045E00003D5BDE88901BDE80088BDE88901BDE8C3
:1045F0000048B619524141EB0101A3F10103704794
:1046000080807F7E7D7C7B7A79787776767574730F
:10461000727171706F6E6E6D6C6C6B6A6A696868CE
:10462000676666656464636362616160605F5F5E64
:104630005E5D5D5C5C5B5B5A5A59595858575756DA
:10464000565555555454535352525251515050503F
:104650004F4F4F4E4E4D4D4D4C4C4C4B4B4B4A4A91
:104660004A494949484848474747474646464545D5
:10467000454444444443434343424242424141410E
:104680009C46002B30D477002BD04FEA37071CB55F
:1046900003B44FF010004FF01001BAF1000F06D034
:1046A000BCF1000FDCBF40F0080040F008014FF003
:1046B00000000FBCBDE810400BF1010BBBF1010F76
:1046C00008BF5FEA170722BF12F1010211F10101D1
:1046D0004FF0004143F1000300F0004043EA0000C6
:1046E0007047F9D35708D0E746EA06464FEA164620
:1046F00013F1400F1FDD13F1200FDFBF16430A46F1
:10470000002120335B42BED0C3F1200746EA0646B3
:104710004FEA164602FA07F746EA070622FA03F2BC
:10472000C3F1200701FA07F742EA070221FA03F171
:104730004FF00003A7E746EA020646EA06464FEABC
:10474000164646EA0106BCBF46EA0646360C4FF05E
:1047500000034FF000024FF0000194E72DE9804C78
:1047600070B49A46934691E8380007C831EA400C85
:1047700048BF34EA430C03D5FFF7E6FDFFF780FF9F
:10478000F0BCBDE8008C2DE9804C70B49A4693468D
:1047900091E8380007C810F0804F08BF13F0804F31
:1047A00003D100F005F8FFF76BFFF0BCBDE8008C0B
:1047B00020F07F4723F07F4C80EA030000F00040A8
:1047C00007EB0C03A3F57C53A3F1FE0392F0000F5B
:1047D00000F0B38095F0000F00F077802DE90149DB
:1047E0004FEA114021EA00484FEA144624EA0647FE
:1047F00000FB06FC08FB06F607FB08F818EB06486A
:104800004CEB164C00FB07F718EB07484CEB174036
:104810004FEA124B22EA0B4E4FEA154625EA0647AD
:104820000BFB06FC0EFB06F607FB0EFE1EEB064E10
:104830004CEB164C0BFB07F71EEB074E4CEB174BE4
:1048400018EB0B0840F1000018EB0E0B58EB0008BA
:1048500040F100008F1A4FF000014FF000063CBFFE
:10486000C943661B14BFB5EB040C00213CBFC94310
:10487000F61B4FEA174427EA04454FEA1C472CEA87
:10488000074C04FB076205FB07F70CFB05F616EB6C
:10489000074642EB174204FB0CFC16EB0C4642EBBE
:1048A0001C421BEB060658EB020241414EEA8E0EFB
:1048B00046EA9E0601D5BDE80189B619524141EB91
:1048C0000101A3F10103BDE801894FEA144524EA7F
:1048D00005464FEA114721EA074C05FB07F406FBA2
:1048E00007F70CFB06F111EB074144EB174405FBFE
:1048F0000CFC11EB0C4144EB1C444FEA124722EA3A
:10490000074C05FB07F206FB07F70CFB06F616EB58
:10491000074642EB174205FB0CFC16EB0C4642EB3C
:104920001C456A1854F1000148BF7047B61952413E
:1049300041EB0101A3F10103704795F0000F37D05F
:104940004FEA114221EA02464FEA144724EA074C93
:1049500002FB07F106FB07F70CFB06F414EB074418
:1049600041EB174102FB0CFC14EB0C4441EB1C41E6
:104970004FEA154725EA074C02FB07F506FB07F748
:104980000CFB06F616EB074645EB174502FB0CFC45
:1049900016EB0C4645EB1C42121951F1000148BFC1
:1049A0007047B619524141EB0101A3F10103704771
:1049B0004FEA144524EA05464FEA114721EA074C1D
:1049C00005FB07F106FB07F70CFB06F212EB0742AB
:1049D00041EB174105FB0CFC12EB0C4251EB1C4167
:1049E0004FF0000648BF7047921841EB0101A3F158
:1049F0000103704703B401984100009850EAC120B8
:104A000018BF04204A0D18BF40F0010040F2FF72A9
:104A1000B2EB515F08BF40F00200012808BF05203B
:104A200002B070470000000010B52DED020B2DED17
:104A3000088B84B09DED0C0B51EC100B00F076FC54
:104A400041EC180B9DED0C0B53EC182B51EC100B9B
:104A500000F0C6FC41EC190B0D989FED290B10F0EE
:104A6000004F53EC102B51EC190B9FED21AB9FED38
:104A700022BB0ED000F0EAFA0ED953EC1B2B51ECFE
:104A8000190B00F01DFC1CD214E000BF41EC180B08
:104A900017E000F0DBFA06D253EC1A2B51EC180B9E
:104AA00000F09EFCF2E753EC1B2B51EC190B00F0CD
:104AB00007FC06D853EC1A2B51EC180B00F08AF8BF
:104AC000E4E78DED028B9DED0C0B18EE901A10EEC5
:104AD000900A8DED000B61F31E0003909DED020B1B
:104AE00004B0BDEC088B02B010BD00000000000057
:104AF000000000000000F03F000000000000E03F68
:104B0000000000000000E0BF30380A2801D2012078
:104B1000704700207047000010B500290AD00878BF
:104B2000002807D005487844FCF736FC002801D05F
:104B3000002010BD0248784410BD0000E60C0000C3
:104B4000DE0C000010B500290AD00878002807D034
:104B500005487844FCF720FC002801D0002010BD57
:104B60000248784410BD0000D60C0000CE0C0000B6
:104B700021F0004201F00043A2F16052B2F5801F23
:104B800028BFD2F17F6C0BD95FEA001C43EAC20256
:104B900042EB507018BF704728BF20F001007047EB
:104BA000B2F5801FBCBF184670474FEA410C1CF598
:104BB000001F02D2084600F07FBD70B500F02CFB4C
:104BC00000000089FFF7F6BF4FF00040A0F580001D
:104BD0007047000010B591EA030F48BF83F000430F
:104BE00000F10684841A71EB030C05D2121943EB11
:104BF0000C03001B61EB0C014FEA1154A4EB135C96
:104C0000DFF81CE11EEA430F18BF9EEA445F00F084
:104C1000748021EA045123EA0E0343F48013DCF18B
:104C2000200E32D322FA0CFE10EB0E0023FA0CFEFB
:104C300041EB0E01CCF1200E03FA0EFE10EB0E003C
:104C4000CCF1200E51F10001B1F5801F32D201EB01
:104C5000045112FA0EF2BDE8104058BF7047401CD4
:104C600038BF5FEA420218BF7047002814BF20F027
:104C7000010041F100014FEA410313F5001F38BF65
:104C80007047A1F1C04100F015BB012A43EB0302BC
:104C9000ACF1200CDCF11F0E32BF4FF0000E23FAF6
:104CA0000CF310EB030041EB0451B4EB115FD0D0D7
:104CB000A1EB045101F58011490801EB04515FEAB1
:104CC00030000ED350F1000038BF12FA0EFE08D1AA
:104CD000BDE81040C9E7401C38BF5FEA4202CAD1B4
:104CE000C3E7BDE810404FEA410313F5001F38BF8A
:104CF0007047A1F1C04100F0DDBA9EEA445F08D0E0
:104D000011EA5E0FBDE8104004BF01F00041002031
:104D10007047BDE8104070B500F07EFA64FBBE3EFF
:104D20000000E0FF491058BFC1F140415B1058BF7F
:104D3000C3F140438B42EFF3008070472DE9C0413F
:104D400030B4DFF8A4C23CEA111418BF3CEA1314D3
:104D500000F0ED801CEA111481EA030544EAD574E1
:104D600018BF1CEA131500F0C880A4EB050404F179
:104D70007F7404F500344FF0004545EAC12145EA4F
:104D8000C32341EA505143EA52534FEAC0204FEA4D
:104D9000C222994208BF904200F09D804FEA1365FD
:104DA0000FF24416765D4FEA134506FB05F7C7F18F
:104DB000807706FB07F74FEAD737A7FB03687642F1
:104DC000A7FB06CEC8F5803838BFA8F1010807FB5D
:104DD00008E6A6FB028C4FF0000EE6FB03CEDCF1EA
:104DE000000CCEF1004E38BFAEF1010EA6FB0C5800
:104DF0004FF00007E6FB0E87A1FB08C6A0FB07CE1D
:104E000016EB0E064FF0000545F10005E1FB0765C6
:104E100015F1E04E7EBFA4F580345FEA46066D4191
:104E200016F1800745F100054FEA172747EA0567A5
:104E30004FEA15254FEA0666A6F1DE46B6F1805F19
:104E400020D9384605EBC47124F0010C01EB0C119C
:104E5000BCF1FE6F02D8F0BCBDE8008124425CBF0B
:104E600001F5801E9EEAC47F02D4F0BCBDE800813B
:104E7000244200F13980A1F1C041F0BCBDE80041FD
:104E800000F018BA4FEAD02040EA41504FEAD12151
:104E90004FEAD22242EA43524FEAD323A7FB0286CB
:104EA00007FB036605FB02661EEA0E0F58BFA6EB62
:104EB0000056B6EB00564FEA520E4EEAC37E18EB90
:104EC0000E0E56EB530EBCD518EB02085E417F1C4C
:104ED00055F10005B5E74FF480154FF000074FF08E
:104EE00000064FF00008ACE701F1C04101F00041BD
:104EF0004FF00000F0BCBDE800810CEA131511EA88
:104F00000C1F00D00CE013EA0C1F00F026804FF0BD
:104F1000000081EA030101F00041F0BCBDE800811E
:104F2000F0BCBDE8004181EA030100F0C3B9F0BC68
:104F3000BDE8004170B500F06FF900BF097EFC3E8E
:104F400000F007B84FF0000081EA030101F00041D2
:104F5000704781EA030100F0ADB9F0BCBDE8004143
:104F600022494FF000007047FFFDFBF9F7F5F4F21E
:104F7000F0EEEDEBE9E8E6E4E3E1E0DEDDDBDAD8F4
:104F8000D7D5D4D3D1D0CFCDCCCBCAC8C7C6C5C452
:104F9000C2C1C0BFBEBDBCBBBAB9B8B7B6B5B4B369
:104FA000B2B1B0AFAEADACABAAA9A8A8A7A6A5A454
:104FB000A3A3A2A1A09F9F9E9D9C9C9B9A99999818
:104FC0009797969595949393929191908F8F8E8EBB
:104FD0008D8C8C8B8B8A8989888887878685858448
:104FE00084838382828181800000FF070000F87F34
:104FF0004FEA1153A3F58063D3F11E03A8BFD3F189
:10500000200C08DB4FF0004242EAC12252EA505223
:1050100032FA03F0704709420BD4102BC4BF0020B2
:10502000704703F5787CBCF1FF3F05D04FF0FF30AF
:1050300070474FF00000704770B500F0EDF800BF0A
:105040004992248000207047F0E7000051EA030CE9
:1050500017D41CF5801F58BFBCF5801F00F10680D7
:10506000994218BF704708BF9042704707D711F5A3
:10507000801F58BF13F5801F19D499427047894289
:1050800070471CF5801F08D5BCF5801FF7D58B42F3
:1050900018BF704708BF824270474FF4001C1CEBDA
:1050A000410F38BF1CEB430F01D28B42704770B5E4
:1050B00000F0B2F8922449004FF000514FF08053B5
:1050C000FFF730BE70B5DFF848C11CEA111E1EBFE5
:1050D0001CEA13159EEA0C0F95EA0C0F00F06F8086
:1050E00081EA03044EEAD47EAE4421EA4C1123EA5D
:1050F0004C1341F4801143F48013AEF17F7EA1FB89
:10510000024CA0FB0365361955EB0C05A1FB034CC3
:105110004CF10003A0FB021C16EB0C06654153F199
:105120000003094218BF46F0010613F4007F0BD1BB
:105130004FEA03314FEA053041EA155140EA165073
:1051400034036FF003020AE04FEAC3214FEAC5209F
:1051500041EA555140EA5650F4026FF0020202EB68
:105160002E4201EB025585EACE710AD05FEA440C6B
:1051700018BF24F0004450F1000041F1000120EA82
:10518000D47040F2FE7C624500D270BDA84214BFCC
:105190004FF080444FF04044002E08BF0024BEF181
:1051A000806FA8BFA1F1C041BDE8704080F282804D
:1051B00001F1C04101F000414FF0000070470CEADE
:1051C00013159EEA0C0F18BF95EA0C0F06D081EA62
:1051D000030E4FF000000EF0004170BD00F01CF80F
:1051E0008900013E00F007B800F009B84FEA430C0F
:1051F0005FEA5C5C08D081EA030100F05BB84FEA2B
:10520000410C5FEA5C5CF6D102494FF00000704748
:105210000000FF070000F87F0EF1020E2EF0030ED3
:105220005EF8046B364205D4012A43EB030515F5FD
:10523000001F12D8012841EB010C1CF5001F0CD8EF
:105240000ED14FEAD17C0CEB4C0C0CF1020C15F595
:10525000001F08BF4CEBD37C04E04FF0080C01E0CA
:105260004FEAD37C0CEB4C0526FA05F606F0070650
:10527000B6F1040C06D20EEB860CBDE870404CF083
:10528000010C6047DFE80CF0090B02024FF000410F
:10529000A1F500214FF0000070BD1946104601280D
:1052A00051EB010418BFD4F5001484BF002001F0B5
:1052B000004170BD0808A0F500114FEA31017047A8
:1052C00053EA010C17D41CF5801F58BFBCF5801F92
:1052D00000F106808B4218BF704708BF82427047BA
:1052E00007D713F5801F58BF11F5801F19D48B42C3
:1052F00070479B4270471CF5801F08D5BCF5801F86
:10530000F7D5994218BF704708BF904270474FF4D5
:10531000001C1CEB430F38BF1CEB410F01D299421C
:1053200070470FB40CBC03BCFFF7C1BE5FEA410C71
:105330005FEA5C5CACF580635B1C39D4D3F134026A
:1053400040F34580B2F1200314DA4FF0010C0CFA5F
:1053500002FCACF10103034020EA0300B3EB5C0262
:1053600008BF10EA0C0F98BF704710EB0C0041F11A
:10537000000170470AD0C3F1200201FA02FC0128A3
:105380004CF1000021FA03F101FA03F14FF0010C96
:105390000CFA03FCACF1010321EA0301B0F1004F68
:1053A00008BF11EA0C0F4FF0000088BF614470473E
:1053B000B3F1FF3F28BF50EAC12C01F000414FF08C
:1053C000000084BF41F07C5141F470017047B3F597
:1053D000806FB8BF704770B5FFF71EFF40DBB6BEE9
:1053E00010B591EA030F48BF83F000433FF5FAABD5
:1053F000841A71EB030C07D28CF0004C121943EBAA
:105400000C03001B61EB0C014FEA1154A4EB135C7D
:10541000DFF8A4E11EEA430F18BF9EEA445F00F0E4
:10542000B48021EA045123EA6E035242C3EB6E03B7
:1054300038BF5B1EDCF1200E25D322FA0CFE10EBE8
:105440000E0043FA0CFE41EB0E01CCF1200E03FAE4
:105450000EFE10EB0E00CCF1200E51F1000129D40C
:1054600001EB045112FA0EF2BDE8104058BF70472C
:10547000401C1CBFB2F1004F704700280CBF491CF4
:1054800020F00100704712EB020E43EB030218BF3D
:105490004FF0010E4EEA4202ACF1200CDCF11E0E80
:1054A00056D943FA0CFE10EB0E00CCF11E0E51F152
:1054B000FF31D5D50EF1010E12FA0EFE404141EB3F
:1054C000010101EB445C5FEA5C5C10D901EB045123
:1054D00010EBDE7038BFBEF1004FBDE8104018BFC2
:1054E000704700280CBF491C20F00100704734D2DF
:1054F0004FEAD42C24F4006411F500111BD0B1FA4A
:1055000081F20B3AA41AA41ED2F12003914030FA82
:1055100003F31943904001EBCC7101EB0451002CD3
:10552000BDE81040A8BF704701F1C04101F0004143
:105530004FF000007047B0FA80F310FA03F102D187
:10554000BDE810407047E41A173C4805C90AE2E775
:1055500001EB0451BDE81040704749104FEA30009C
:1055600001EB0451BDE8104002E04FF0000170472C
:105570004A0008BF0042F8D0B2F5001F28BF7047AC
:1055800001F000414FF0000070479EEA445F07D0F1
:1055900011EA5E0FBDE8104004BF002100207047F3
:1055A000BDE8104070B5FFF737FE00BF40DFF63EA4
:1055B000104683F0004170470000E0FF43004FEACF
:1055C000D30C4FEA3C0C43401FBF40070CF1605125
:1055D00013F0FE4F70471CF0006F03D10CF0004138
:1055E000002070470CF0004343EA507040EACC00C2
:1055F00010B500F00EF800BF000000924FEA000165
:10560000FFF758BE4FF00041A1F500214FF0000018
:1056100070470EF1020E2EF0030E5EF8044B24428A
:1056200004D44FEA4102B2F17F4F11D84FEA400350
:10563000B3F17F4F0CD80ED14FEAD07C0CEB4C0C61
:105640000CF1020CB2F17F4F08BF4CEBD17C04E0AF
:105650004FF0080C01E04FEAD17C0CEB4C0324FA2C
:1056600003F404F00704B4F1040C06D20EEB840C2E
:10567000BDE810404CF0010C6047DFE80CF0070873
:1056800002024FF00040A0F5800010BD0846420025
:1056900018BFD2F1807288BF00F0004010BDF1EE5B
:1056A000100A4FF6FF71C0F2C03120EA010040F04D
:1056B0004070E1EE100A7047FF2141EAD050C0056A
:1056C0007047FBF771BAFBF7A5BB000000000000B4
:1056D000000000003031323334353637383941423A
:1056E0004344454640305800303132333435363744
:1056F00038396162636465664030780004000008F0
:1057000000000000000000020001000010303132F3
:1057100033343536373839616263646566787000D2
:1057200030313233343536373839414243444546D7
:105730005850000002400000000000A000000000DF
:1057400005400000000000C8000000000C40000000
:105750000000409C00000000194000000020BCBE7A
:105760000000000034400000BFC91B8E0000000490
:10577000B5400000504BCFD06607E2CF01000000DB
:105780006C4100003E8251AADFEEA7340100000008
:10579000D9420000DCB5A0E23A301F97FFFFFFFFBF
:1057A000B4450000FD25A0C8E9A3C14FFFFFFFFFDE
:1057B000FF3F00000000008000000000FF3F0000ED
:1057C00000000080000000000D0A004D4F443A2008
:1057D00000204449523A2000205354523A200020DD
:1057E00056454C3A20560025640000003859000800
:1057F0000000002040000000D40100087859000893
:1058000040000020A8060000F00100081C00000075
:1058100043000000F8FFFFFF0C0000000E00000036
:105820000F0000002E0000001001000043000000E7
:10583000F8FFFFFF004040404040404040404141B1
:105840004141414040404040404040404040404055
:1058500040404040400502020202020202020202EF
:1058600002020202022020202020202020202002EC
:10587000020202020202909090909090101010107C
:105880001010101010101010101010101010101018
:1058900002020202020288888888888808080808AC
:1058A0000808080808080808080808080808080878
:1058B00002020202400000000000000000000000A0
:1058C00000000000000000000000000000000000D8
:1058D00000000000000000000000000000000000C8
:1058E00000000000000000000000000000000000B8
:1058F00000000000000000000000000000000000A8
:105900000000000000000000000000000000000097
:105910000000000000000000000000000000000087
:105920000000000000000000000000000000000077
:1059300000000000000000000024F400010100004D
:105940000000C04010110000666666666666E63FAD
:10595000333333333333E33F000000000000D03FE4
:105960000000000000000000000000000000F03F08
:08597000000000000000F03F00
:040000050800019955
:00000001FF
