:020000040800F2
:100000007806002039020008410200084302000877
:1000100045020008470200084902000800000000ED
:100020000000000000000000000000004B0200087B
:100030004D020008000000004F02000849050008BA
:10004000530200085302000853020008530200083C
:10005000530200085302000853020008530200082C
:10006000530200085302000853020008530200081C
:10007000530200085302000853020008530200080C
:100080005302000853020008530200080000000059
:100090000000000000000000000000005302000803
:1000A00053020008530200085302000853020008DC
:1000B00075050008530200085302000853020008A7
:1000C00053020008530200085302000853020008BC
:1000D0005302000853020008530200080000000009
:1000E00053020008530200085302000800000000F9
:1000F00000000000000000000000000053020008A3
:1001000000000000530200085302000853020008D8
:1001100000000000000000000000000000000000DF
:10012000530200085302000853020008530200085B
:100130005302000800000000000000000000000062
:100140000000000000000000000000005302000852
:10015000530200085302000853020008530200082B
:1001600053020008530200080000000000000000D5
:10017000000000000000000000000000000000007F
:100180000000000053020008000000000000000012
:10019000530200085302000800F002F800F03CF897
:1001A0000AA090E8000C82448344AAF10107DA45D2
:1001B00001D100F031F8AFF2090EBAE80F0013F0E8
:1001C000010F18BFFB1A43F001031847F8040000A1
:1001D00018050000103A24BF78C878C1FAD8520731
:1001E00024BF30C830C144BF04680C6070470000B1
:1001F0000023002400250026103A28BF78C1FBD830
:10020000520728BF30C148BF0B6070471FB500F0D0
:100210004CFA1FBD10B510BD00F031F81146FFF7C4
:10022000F5FF00F00BFA00F04FF803B4FFF7F2FF10
:1002300003BC00F057F80000094880470948004710
:10024000FEE7FEE7FEE7FEE7FEE7FEE7FEE7FEE786
:10025000FEE7FEE704480549054A064B70470000E3
:100260006105000899010008780000207806002048
:10027000780200207802002070477047704775466A
:1002800000F02CF8AE4605006946534620F0070002
:10029000854618B020B5FFF7DDFFBDE820404FF0E0
:1002A00000064FF000074FF000084FF0000BAC467F
:1002B000ACE8C009ACE8C009ACE8C009ACE8C009CA
:1002C00021F007018D46704710B50446AFF300805A
:1002D0002046BDE81040FFF7A8BF00000048704767
:1002E0000800002001491820ABBEFEE726000200EE
:1002F0007047000080B584B003900291019203988A
:100300000021C4F20201884203D1FFE700F06AF83D
:10031000FFE7039840F20041C4F20201884203D192
:10032000FFE700F069F8FFE7039840F60001C4F228
:100330000201884203D1FFE700F068F8FFE7039865
:1003400040F60041C4F20201884203D1FFE700F009
:1003500067F8FFE703980299019A00F003F804B0E8
:1003600080BD000083B0029001910092019841008D
:10037000032000FA01F2029908689043086000988F
:100380000199490000FA01F20299086810430860D7
:1003900003B0704783B0029001910092019901204F
:1003A00000FA01F202994869904348610098019966
:1003B00000FA01F2029948691043486103B070479E
:1003C00080B540F26800C2F20000016881F00101CE
:1003D000016002680020C4F202000521FFF7DAFF85
:1003E00080BD000043F63001C4F20201086840F00D
:1003F000010008607047000043F63001C4F20201BA
:10040000086840F0020008607047000043F63001C1
:10041000C4F20201086840F0040008607047000060
:1004200043F63001C4F20201086840F00800086099
:100430007047000081B043F60041C4F20201086831
:1004400020F007000860086840F00200086043F6EA
:100450000001C4F20201086840F001000860FFE7F3
:1004600043F60000C4F2020000688007002801D4AF
:10047000FFE7F5E743F60001C4F20201086820F047
:100480008070086043F60402C4F202020092106811
:1004900020F480001060106810601068542363F32B
:1004A0008E1010601068082363F305001060106858
:1004B00020F440301060086840F080700860FFE76A
:1004C00043F60000C4F20200006800F00071002052
:1004D000B0EB516F01D0FFE7F2E743F60801C4F239
:1004E0000201086820F003000860086840F002007C
:1004F0000860FFE743F60800C4F20200006800F05D
:100500000C00082801D0FFE7F4E743F60801C4F225
:100510000201086820F0F0000860086820F4E0504C
:100520000860086840F480500860086820F4604063
:10053000086040F20001C2F200014BF60050C0F228
:100540000150086001B0704780B500F001F880BD2F
:1005500040F27001C2F20001086801300860704783
:100560004EF68851CEF20001086840F47000086031
:100570007047000080B51020C4F200000068C0077A
:1005800008B3FFE740F26C00C2F200000068B0F56B
:10059000FA7F09D1FFE7FFF713FF40F26C01C2F2C7
:1005A000000100200860FFE71021C4F20001086884
:1005B00020F00100086040F26C01C2F200010868FE
:1005C00001300860FFE780BD81B08DF803009DF920
:1005D000030000280ED4FFE79DF9031001F01F026D
:1005E000012090404A094EF20011CEF2000141F87C
:1005F0002200FFE701B0704782B08DF8070000913C
:100600009DF9070000280AD4FFE7009800019DF932
:1006100007104EF20042CEF2000288540BE0009820
:1006200000019DF8071001F00F014EF61452CEF2B2
:1006300000028854FFE702B07047000080B584B024
:100640000020039000F026F84FF08040029043F61F
:100650004001C4F20201086840F0010008600299FC
:1006600040F24730886202996320C8620299C868E4
:1006700040F00100C8600299086840F0010008607D
:100680001C2001900221FFF7B7FF0198FFF79CFFA4
:10069000FFE7FEE780B5FFF7CDFE0020C4F20200C1
:1006A00005210122FFF726FE80BDF1EE100A4FF66C
:1006B000FF71C0F2C03120EA010040F04070E1EE6D
:1006C000100A7047E806000800000020080000003B
:1006D000D4010008F00600080800002070060000A1
:1006E000F0010008000000000024F40000000000F9
:040000050800019955
:00000001FF
