:020000040800F2
:10000000700600203902000841020008430200087F
:1000100045020008470200084902000800000000ED
:100020000000000000000000000000004B0200087B
:100030004D020008000000004F020008ED0B000810
:10004000530200085302000853020008530200083C
:10005000530200085302000853020008530200082C
:10006000530200085302000853020008530200081C
:10007000530200085302000853020008530200080C
:100080005302000853020008530200080000000059
:100090000000000000000000000000005302000803
:1000A00053020008530200085302000853020008DC
:1000B00053020008530200085302000853020008CC
:1000C00053020008530200085302000853020008BC
:1000D0005302000853020008530200080000000009
:1000E00053020008530200085302000800000000F9
:1000F00000000000000000000000000053020008A3
:1001000000000000530200085302000853020008D8
:1001100000000000000000000000000000000000DF
:10012000530200085302000853020008530200085B
:100130005302000800000000000000000000000062
:100140000000000000000000000000005302000852
:10015000530200085302000853020008530200082B
:1001600053020008530200080000000000000000D5
:10017000000000000000000000000000000000007F
:100180000000000053020008000000000000000012
:10019000530200085302000800F002F800F03CF897
:1001A0000AA090E8000C82448344AAF10107DA45D2
:1001B00001D100F031F8AFF2090EBAE80F0013F0E8
:1001C000010F18BFFB1A43F001031847E0130000AA
:1001D00000140000103A24BF78C878C1FAD852073A
:1001E00024BF30C830C144BF04680C6070470000B1
:1001F0000023002400250026103A28BF78C1FBD830
:10020000520728BF30C148BF0B6070471FB501F0CF
:10021000BBF91FBD10B510BD00F031F81146FFF756
:10022000F5FF00F0C5FF00F04FF803B4FFF7F2FF51
:1002300003BC00F057F80000094880470948004710
:10024000FEE7FEE7FEE7FEE7FEE7FEE7FEE7FEE786
:10025000FEE7FEE704480549054A064B70470000E3
:10026000610C000899010008700000207006002051
:10027000700200207002002070477047704775467A
:1002800000F02CF8AE4605006946534620F0070002
:10029000854618B020B5FFF7DDFFBDE820404FF0E0
:1002A00000064FF000074FF000084FF0000BAC467F
:1002B000ACE8C009ACE8C009ACE8C009ACE8C009CA
:1002C00021F007018D46704710B50446AFF300805A
:1002D0002046BDE81040FFF7A8BF00000048704767
:1002E0000800002001491820ABBEFEE726000200EE
:1002F0007047000080B586B0059004910392029388
:1003000043F64401C4F20201086840F480400860EA
:1003100005980021C4F20201884203D1FFE70020C2
:10032000019026E0059840F20041C4F202018842A3
:1003300003D1FFE7012001901AE0059840F6000183
:10034000C4F20201884203D1FFE7022001900EE0CF
:10035000059840F60041C4F20201884203D1FFE74C
:100360000320019002E004200190FFE7FFE7FFE790
:10037000FFE70498C11700EB917121F00301401AC7
:1003800082000F2000FA02F343F60802C4F20102D1
:100390008858984388500198049BD91703EB9171B2
:1003A00021F003015B1A9B0000FA03F388581843FD
:1003B0008850039860B9FFE70499012000FA01F220
:1003C00043F60C41C4F201010868104308602BE0B9
:1003D000039801280CD1FFE70499012000FA01F2EB
:1003E00043F60841C4F201010868104308601AE0AE
:1003F0000398022816D1FFE70499012000FA01F3BF
:1004000043F60842C4F201021168194311600499CD
:1004100000FA01F243F60C41C4F2010108681043EE
:100420000860FFE7FFE7FFE70499012000FA01F207
:1004300043F60041C4F2010108681043086000203F
:1004400000900498042804DCFFE70498063000902C
:100450000AE00498092803DCFFE71720009002E077
:1004600028200090FFE7FFE79DF90000029900F0C7
:10047000C9FD9DF9000000F07DFD06B080BD0000C3
:1004800080B584B003900291019203980021C4F2D8
:100490000201884203D1FFE700F0F6FAFFE7039874
:1004A00040F20041C4F20201884203D1FFE700F0AC
:1004B000F5FAFFE7039840F60001C4F20201884212
:1004C00003D1FFE700F0F4FAFFE7039840F600419C
:1004D000C4F20201884203D1FFE700F0F3FAFFE71C
:1004E00003980299019A00F003F804B080BD00005F
:1004F00083B002900191009201984100032000FA1C
:1005000001F2029908689043086000980199490037
:1005100000FA01F2029908681043086003B07047BE
:1005200083B002900191009201984100032000FAEB
:1005300001F2029988689043886000980199490007
:1005400000FA01F2029988681043886003B070478E
:1005500083B00290019100920199012000FA01F20A
:1005600002994868904348600098019900FA01F2A6
:10057000029948681043486003B0704783B0029006
:100580000191009201984100032000FA01F20299C2
:10059000C8689043C86000980199490000FA01F2C8
:1005A0000299C8681043C86003B0704780B588B02E
:1005B0008DF81F008DED060A9DF91F0005A904AAFC
:1005C00000F0A4FD9DF91F0003A902AA00F04EF956
:1005D0000398C06A013000EE100AB8EE400A9DEDA3
:1005E000061A20EE010AB7EE001A30EE010A8DED70
:1005F000010A0298012808D1FFE79DED010A03983E
:10060000BCEEC00A80ED0D0A26E00298022808D14F
:10061000FFE79DED010A0398BCEEC00A80ED0E0ACB
:1006200019E00298022808D1FFE79DED010A03981E
:10063000BCEEC00A80ED0F0A0CE00298022808D137
:10064000FFE79DED010A0398BCEEC00A80ED100A99
:10065000FFE7FFE7FFE7FFE708B080BD80B586B0A2
:100660008DF817009DF9170004A903AA00F04EFDAC
:100670009DF9170002A901AA00F0F8F8049803995F
:100680000222FFF7FDFE039807280ADCFFE7039824
:100690008100012000FA01F20499086A10430862FF
:1006A00012E0039808280EDBFFE703980F280ADC06
:1006B000FFE703988100012000FA01F20499486ADB
:1006C00010434862FFE7FFE70298012100F050FB6A
:1006D0000299086820F0010008600299086820F07B
:1006E000100008600298C06A400800900198012834
:1006F0001DD1FFE70299886920F070008861029996
:10070000886940F0600088610299886940F00800BB
:1007100088610098029948630299086A20F00200F3
:1007200008620299086A40F00100086265E00198D9
:1007300002281DD1FFE70299886920F4E040886112
:100740000299886940F4C04088610299886940F440
:10075000006088610098029988630299086A20F015
:10076000020008620299086A40F00100086243E052
:10077000019803281DD1FFE70299C86920F0700095
:10078000C8610299C86940F06000C8610299C869EF
:1007900040F00800C86100980299C8630299086A8D
:1007A00020F0020008620299086A40F00100086225
:1007B00021E0019804281DD1FFE70299C86920F4BF
:1007C000E040C8610299C86940F06000C8610299C0
:1007D000C86940F00800C86100980299086402994D
:1007E000086A20F0020008620299086A40F00100DD
:1007F0000862FFE7FFE7FFE7FFE702980021C4F286
:100800000101884206D1FFE70299486C40F400409C
:100810004864FFE70299086840F00100086006B0EC
:1008200080BD000080B582B08DF8070000919DF971
:100830000700009900F002F802B080BD80B586B0D4
:100840008DF8170004919DF9170003A902AA00F082
:100850005DFC9DF9170001A96A4600F007F80198B0
:10086000049900F013FB06B080BD000080B588B08D
:100870008DF81F00069105929DF91F0004A903AA97
:1008800000F044FC04980021C4F20201884256D1D1
:10089000FFE7039802900F284FD80299DFE801F094
:1008A00008104D4D4D18204D2A333C4D4D4D4D45B2
:1008B00006994FF0804008600599012008603DE0EE
:1008C00006994FF08040086005990220086035E0E5
:1008D00006994FF0804008600599012008602DE0DE
:1008E000069940F20040C4F200000860059901201A
:1008F000086023E006990020C4F201000860059911
:10090000012008601AE006990020C4F20100086086
:1009100005990220086011E006990020C4F2010048
:10092000086005990320086008E006994FF08040B0
:10093000086005990120086000E0FFE7A1E0049845
:1009400040F20041C4F2020188425BD1FFE7039804
:10095000033801460191072852D80199DFE801F0D8
:10096000040C16202A343E4806994FF08040086057
:1009700005990220086044E0069940F20040C4F264
:10098000000008600599012008603AE0069940F2ED
:100990000040C4F20000086005990220086030E0C1
:1009A000069940F60000C4F2000008600599012095
:1009B000086026E0069940F60000C4F200000860D6
:1009C0000599022008601CE0069940F60000C4F278
:1009D0000000086005990320086012E0069940F6BF
:1009E0000000C4F20000086005990420086008E0D7
:1009F00006994FF08040086005990320086000E0E8
:100A0000FFE73DE0049840F60001C4F2020188428D
:100A100035D1FFE7039806380146009103282CD80A
:100A20000099DFE801F0020C1620069940F2004020
:100A3000C4F2000008600599012008601EE00699D4
:100A400040F20040C4F200000860059902200860EE
:100A500014E0069940F20040C4F2000008600599D5
:100A6000032008600AE0069940F20040C4F200004A
:100A7000086005990420086000E0FFE7FFE7FFE752
:100A8000FFE708B080BD000043F63001C4F2020168
:100A9000086840F0010008607047000043F630012C
:100AA000C4F20201086840F00200086070470000CC
:100AB00043F63001C4F20201086840F00400086007
:100AC0007047000043F63001C4F20201086840F0AC
:100AD000080008607047000081B043F60041C4F28E
:100AE0000201086820F007000860086840F0020072
:100AF000086043F60001C4F20201086840F00100FA
:100B00000860FFE743F60000C4F2020000688007B7
:100B1000002801D4FFE7F5E743F60001C4F2020123
:100B2000086820F08070086043F60402C4F20202F4
:100B30000092106820F48000106010681060106847
:100B4000542363F38E1010601068082363F30500CC
:100B50001060106820F440301060086840F0807029
:100B60000860FFE743F60000C4F20200006800F0EE
:100B700000710020B0EB516F01D0FFE7F2E743F6C0
:100B80000801C4F20201086820F003000860086848
:100B900040F002000860FFE743F60800C4F20200DC
:100BA000006800F00C00082801D0FFE7F4E743F6E6
:100BB0000801C4F20201086820F0F000086008682B
:100BC00020F4E0500860086840F48050086008682D
:100BD00020F46040086040F20001C2F200014BF6D0
:100BE0000050C0F20150086001B0704780B500F0BD
:100BF00001F880BD40F26801C2F2000108680130CE
:100C00000860704780B582B04EF21001CEF200014C
:100C1000002008600A6842F004020A604EF21403E1
:100C2000CEF2000344F61F02C0F201021A604EF237
:100C30001802CEF200021060086840F0020008605E
:100C4000086840F0010008604FF0FF30019010216B
:100C500000F0FAF9019800F0A5F902B080BD00009B
:100C60004EF68851CEF20001086840F4700008602A
:100C70007047000081B000900099C86840F0010002
:100C8000C86001B07047000080B584B00390029145
:100C90000398029900F06CF80398FFF7EBFF00202F
:100CA000019003980021C4F20101884203D1FFE7BB
:100CB0001920019050E00398B0F1804F03D1FFE775
:100CC0001C20019047E0039840F20041C4F200016B
:100CD000884203D1FFE71D2001903BE0039840F6D6
:100CE0000001C4F20001884203D1FFE71E200190F9
:100CF0002FE0039840F60041C4F20001884203D17E
:100D0000FFE73220019023E0039844F20001C4F28F
:100D10000101884203D1FFE71820019017E00398F2
:100D200044F20041C4F20101884203D1FFE71920D7
:100D300001900BE0039844F60001C4F201018842DF
:100D400003D1FFE71A200190FFE7FFE7FFE7FFE786
:100D5000FFE7FFE7FFE7FFE79DF9040000F03AF93E
:100D60009DF90400022100F091F904B080BD00005B
:100D700080B582B00190009101980021C4F2010178
:100D8000884209D1FFE743F64401C4F20201086832
:100D900040F00100086068E00198B0F1804F09D18F
:100DA000FFE743F64001C4F20201086840F0010089
:100DB000086059E0019840F20041C4F20001884205
:100DC00009D1FFE743F64001C4F20201086840F090
:100DD0000200086047E0019840F60001C4F20001FB
:100DE000884209D1FFE743F64001C4F202010868D6
:100DF00040F00400086035E0019840F60041C4F27C
:100E00000001884209D1FFE743F64001C4F2020124
:100E1000086840F00800086023E0019844F20001EF
:100E2000C4F20101884209D1FFE743F64401C4F24C
:100E30000201086840F48030086011E0019844F62F
:100E40000001C4F20101884209D1FFE743F64401E1
:100E5000C4F20201086840F480200860FFE7FFE761
:100E6000FFE7FFE7FFE7FFE7FFE70198009900F0E2
:100E70000DF80199086820F01000086001990868D1
:100E800040F00100086002B080BD000086B005900F
:100E9000049143F60800C4F20200006880070028AD
:100EA00006D5FFE74BF60050C0F2015002900EE06D
:100EB00043F60800C4F202000068002030B9FFE7E2
:100EC00042F20040C0F2F4000290FFE7FFE705980D
:100ED000B0F1804F08D0FFE7059840F60041C4F21A
:100EE0000001884223D1FFE702984DF68361C4F2E6
:100EF0001B31A0FB0110800CADF80E000298BDF86C
:100F00000E10B0FBF1F044F6D351C1F26201A0FB28
:100F100001108009049948430190BDF80E00013882
:100F200005998862019801380599C86220E0029805
:100F300044F6D351C1F26201A0FB01208009ADF853
:100F40000E000298BDF80E20B0FBF2F0A0FB0110DD
:100F5000800904994843ADF80200BDF80E0001383D
:100F600005998862BDF8020001380599C862FFE75B
:100F700006B0704781B08DF803009DF9030000288A
:100F80000ED4FFE79DF9031001F01F0201209040ED
:100F90004A094EF20011CEF2000141F82200FFE7AB
:100FA00001B0704781B08DF803009DF9030000285F
:100FB0000ED4FFE79DF9031001F01F0201209040BD
:100FC0004A094EF20011CEF2000141F82200FFE77B
:100FD00001B0704781B08DF803009DF9030000282F
:100FE0000ED4FFE79DF9031001F01F02012090408D
:100FF0004A094EF20011CEF2000141F82200FFE74B
:1010000001B0704782B08DF8070000919DF907008C
:1010100000280AD4FFE7009800019DF907104EF25E
:101020000042CEF2000288540BE0009800019DF8C7
:10103000071001F00F014EF61452CEF20002885450
:10104000FFE702B07047000082B08DF80700009102
:101050009DF9070000280AD4FFE7009800019DF9D8
:1010600007104EF20042CEF2000288540BE00098C6
:1010700000019DF8071001F00F014EF61452CEF258
:1010800000028854FFE702B07047000082B08DF87C
:10109000070000919DF9070000280AD4FFE7009897
:1010A00000019DF907104EF20042CEF20002885472
:1010B0000BE0009800019DF8071001F00F014EF6BB
:1010C0001452CEF200028854FFE702B070470000CD
:1010D00082B0019040F26800C2F200000068009007
:1010E000FFE740F26800C2F2000000680099401A71
:1010F0000199884201D2FFE7F3E740F26801C2F2AA
:1011000000010020086002B07047000085B08DF833
:101110001300039102929DF8130000F00F0001905C
:101120000198029908609DF9130000110090009841
:1011300030B9FFE703990020C4F20200086035E0EF
:101140000098012807D1FFE7039940F20040C4F25C
:101150000200086029E00098022807D1FFE7039900
:1011600040F60000C4F2020008601DE00098032869
:1011700007D1FFE7039940F60040C4F2020008607F
:1011800011E00098072807D1FFE7039941F60040D6
:10119000C4F20200086005E003990020C4F20200D6
:1011A0000860FFE7FFE7FFE7FFE7FFE705B07047ED
:1011B00080B584B00020039000F056F8FFE70020CF
:1011C0000290FFE702980A2820DCFFE7029800F06F
:1011D000C6F841EC100B9FED221B53EC112B51EC88
:1011E000100B00F0D3F841EC100B51EC100B00F099
:1011F00085F800EE100A0120FFF7D8F96420FFF708
:1012000067FFFFE7029801300290DBE70A200190B8
:10121000FFE70198002820D4FFE7019800F09FF82D
:1012200041EC100B9FED0E1B53EC112B51EC100BEE
:1012300000F0ACF841EC100B51EC100B00F05EF834
:1012400000EE100A0120FFF7B1F96420FFF740FF1C
:10125000FFE7019801380190DBE7B0E700BF00BF6E
:101260009A9999999999B93F80B588B0FFF734FC5C
:10127000FFF7C8FC40F20040C4F2000001900121D9
:101280000791FFF701FD0198FFF7F4FC40F600001D
:10129000C4F2020002900D21039100220692FFF792
:1012A000EFF802980399079AFFF768F902980399F3
:1012B000069B1A46FFF71EF807990020C4F20200A9
:1012C000059002220492FFF7DBF80598079A114671
:1012D000FFF754F9049A05980799FFF721F9059843
:1012E000069A0799FFF734F90798FFF7B7F90798B7
:1012F0001421FFF797FA08B080BD000021F00042EA
:1013000001F00043A2F16052B2F5801F28BFD2F174
:101310007F6C0BD95FEA001C43EAC20242EB5070BB
:1013200018BF704728BF20F001007047B2F5801F3A
:10133000BCBF184670474FEA410C1CF5001F02D293
:10134000084600F02EB970B500F0CAF80000008918
:10135000FFF7F6BF4FF00040A0F58000704710F097
:10136000004248BF4042B0FA80F310FA03F10AD0BD
:10137000C3F11D0303F5806302EB03524FEA4150B2
:1013800002EBD12170474FF00000704770B5DFF8D5
:1013900048C11CEA111E1EBF1CEA13159EEA0C0F61
:1013A00095EA0C0F00F06F8081EA03044EEAD47EC8
:1013B000AE4421EA4C1123EA4C1341F4801143F46A
:1013C0008013AEF17F7EA1FB024CA0FB03653619B2
:1013D00055EB0C05A1FB034C4CF10003A0FB021CD8
:1013E00016EB0C06654153F10003094218BF46F0A5
:1013F000010613F4007F0BD14FEA03314FEA0530A9
:1014000041EA155140EA165034036FF003020AE036
:101410004FEAC3214FEAC52041EA555140EA5650F0
:10142000F4026FF0020202EB2E4201EB025585EA54
:10143000CE710AD05FEA440C18BF24F0004450F18A
:10144000000041F1000120EAD47040F2FE7C6245C8
:1014500000D270BDA84214BF4FF080444FF040440A
:10146000002E08BF0024BEF1806FA8BFA1F1C041CB
:10147000BDE8704080F2828001F1C04101F000417E
:101480004FF0000070470CEA13159EEA0C0F18BFCE
:1014900095EA0C0F06D081EA030E4FF000000EF023
:1014A000004170BD00F01CF88900013E00F007B853
:1014B00000F009B84FEA430C5FEA5C5C08D081EAAF
:1014C000030100F05BB84FEA410C5FEA5C5CF6D1C7
:1014D00002494FF0000070470000FF070000F87F4E
:1014E0000EF1020E2EF0030E5EF8046B364205D4A8
:1014F000012A43EB030515F5001F12D8012841EB23
:10150000010C1CF5001F0CD80ED14FEAD17C0CEB5E
:101510004C0C0CF1020C15F5001F08BF4CEBD37CF2
:1015200004E04FF0080C01E04FEAD37C0CEB4C05D3
:1015300026FA05F606F00706B6F1040C06D20EEB05
:10154000860CBDE870404CF0010C6047DFE80CF001
:10155000090B02024FF00041A1F500214FF00000FD
:1015600070BD19461046012851EB010418BFD4F58F
:10157000001484BF002001F0004170BD0808A0F5F0
:1015800000114FEA31017047F1EE100A4FF6FF717A
:10159000C0F2C03120EA010040F04070E1EE100AD4
:1015A0007047FF2141EAD050C0057047D0150008B0
:1015B0000000002008000000D4010008D815000831
:1015C0000800002068060000F0010008000000008C
:0815D0000024F40000000000FB
:040000050800019955
:00000001FF
