:020000040800F2
:10000000800600203902000841020008430200086F
:1000100045020008470200084902000800000000ED
:100020000000000000000000000000004B0200087B
:100030004D020008000000004F020008790D000882
:10004000530200085302000853020008530200083C
:10005000530200085302000853020008530200082C
:10006000530200085302000853020008530200081C
:10007000530200085302000853020008530200080C
:100080005302000853020008530200080000000059
:100090000000000000000000000000005302000803
:1000A00053020008530200085302000853020008DC
:1000B00053020008A50D000853020008530200086F
:1000C00053020008530200085302000853020008BC
:1000D0005302000853020008530200080000000009
:1000E000F502000853020008530200080000000057
:1000F00000000000000000000000000053020008A3
:1001000000000000530200085302000853020008D8
:1001100000000000000000000000000000000000DF
:10012000530200085302000853020008530200085B
:100130005302000800000000000000000000000062
:100140000000000000000000000000005302000852
:10015000530200085302000853020008530200082B
:1001600053020008530200080000000000000000D5
:10017000000000000000000000000000000000007F
:100180000000000053020008000000000000000012
:10019000530200085302000800F002F800F03CF897
:1001A0000AA090E8000C82448344AAF10107DA45D2
:1001B00001D100F031F8AFF2090EBAE80F0013F0E8
:1001C000010F18BFFB1A43F001031847801200000B
:1001D000A0120000103A24BF78C878C1FAD852079C
:1001E00024BF30C830C144BF04680C6070470000B1
:1001F0000023002400250026103A28BF78C1FBD830
:10020000520728BF30C148BF0B6070471FB501F0CF
:100210000FF91FBD10B510BD00F031F81146FFF702
:10022000F5FF01F087F800F04FF803B4FFF7F2FF95
:1002300003BC00F057F80000094880470948004710
:10024000FEE7FEE7FEE7FEE7FEE7FEE7FEE7FEE786
:10025000FEE7FEE704480549054A064B70470000E3
:10026000910D000899010008800000208006002000
:10027000800200208002002070477047704775465A
:1002800000F02CF8AE4605006946534620F0070002
:10029000854618B020B5FFF7DDFFBDE820404FF0E0
:1002A00000064FF000074FF000084FF0000BAC467F
:1002B000ACE8C009ACE8C009ACE8C009ACE8C009CA
:1002C00021F007018D46704710B50446AFF300805A
:1002D0002046BDE81040FFF7A8BF00000048704767
:1002E0001000002001491820ABBEFEE726000200E6
:1002F0007047000080B50D2001F008F860B1FFE7FD
:1003000040F27C01C2F20001086880F00100086040
:100310000D2000F091FFFFE780BD000080B586B0A2
:10032000059004910392029343F64401C4F2020142
:10033000086840F48040086005980021C4F202017A
:10034000884203D1FFE70020019026E0059840F2A3
:100350000041C4F20201884203D1FFE7012001906D
:100360001AE0059840F60001C4F20201884203D168
:10037000FFE7022001900EE0059840F60041C4F22C
:100380000201884203D1FFE70320019002E004202C
:100390000190FFE7FFE7FFE7FFE70498C11700EBD5
:1003A000917121F00301401A82000F2000FA02F33C
:1003B00043F60802C4F20102885898438850019815
:1003C000049BD91703EB917121F003015B1A9B0089
:1003D00000FA03F3885818438850039860B9FFE780
:1003E0000499012000FA01F243F60C41C4F2010124
:1003F0000868104308602BE0039801280CD1FFE740
:100400000499012000FA01F243F60841C4F2010107
:100410000868104308601AE00398022816D1FFE725
:100420000499012000FA01F343F60842C4F20102E4
:10043000116819431160049900FA01F243F60C4166
:10044000C4F20101086810430860FFE7FFE7FFE717
:100450000499012000FA01F243F60041C4F20101BF
:10046000086810430860002000900498042804DC09
:10047000FFE70498063000900AE00498092803DC9E
:10048000FFE71720009002E028200090FFE7FFE739
:100490009DF90000029900F081FE9DF9000000F036
:1004A0004DFE06B080BD000080B584B0039002917F
:1004B000019203980021C4F20201884203D1FFE7B0
:1004C00000F0A8FBFFE7039840F20041C4F20201EC
:1004D000884203D1FFE700F0A7FBFFE7039840F64F
:1004E0000001C4F20201884203D1FFE700F0A6FB3D
:1004F000FFE7039840F60041C4F20201884203D1AD
:10050000FFE700F0A5FBFFE703980299019A00F0CE
:1005100003F804B080BD000083B002900191009206
:1005200001984100032000FA01F202990868904303
:10053000086000980199490000FA01F202990868E0
:100540001043086003B0704783B00290019100929D
:1005500001984100032000FA01F202998868904353
:10056000886000980199490000FA01F202998868B0
:100570001043886003B0704783B0029001910092ED
:100580000199012000FA01F20299486890434860FD
:100590000098019900FA01F20299486810434860F6
:1005A00003B0704783B0029001910092019841001E
:1005B000032000FA01F20299C8689043C8600098CD
:1005C0000199490000FA01F20299C8681043C86015
:1005D00003B0704780B588B08DF81F008DED060A16
:1005E0009DF91F0005A904AA00F036FE9DF91F0021
:1005F00003A902AA00F000FA0398C06A013000EED5
:10060000100AB8EE400A9DED061A20EE010AB7EE78
:10061000001A30EE010A8DED010A0298012808D176
:10062000FFE79DED010A0398BCEEC00A80ED0D0ABC
:1006300026E00298022808D1FFE79DED010A039801
:10064000BCEEC00A80ED0E0A19E00298032808D11A
:10065000FFE79DED010A0398BCEEC00A80ED0F0A8A
:100660000CE00298042808D1FFE79DED010A0398E9
:10067000BCEEC00A80ED100AFFE7FFE7FFE7FFE7E7
:1006800008B080BD80B588B08DF81F009DF91F00AF
:1006900006A905AA00F0E0FD9DF91F0004A903AA20
:1006A00000F0AAF90698059902220192FFF7FCFED4
:1006B000019A06980599FFF747FF069805990022C9
:1006C000FFF75AFF069805990122FFF76BFF05987F
:1006D000002861D4FFE7059807285DDCFFE7049850
:1006E0000021C4F20101884205D0FFE70498B0F16F
:1006F000804F0AD1FFE705988100012000FA01F23E
:100700000699086A1043086245E0049840F20041E7
:10071000C4F20001884210D0FFE7049840F60001BF
:10072000C4F20001884208D0FFE7049840F6004177
:10073000C4F2000188420AD1FFE705988100022037
:1007400000FA01F20699086A1043086222E0049850
:1007500044F20001C4F20101884210D0FFE704987E
:1007600044F20041C4F20101884208D0FFE7049836
:1007700044F60001C4F2010188420AD1FFE705985E
:100780008100032000FA01F20699086A104308620A
:10079000FFE7FFE7FFE76EE0059808286ADBFFE761
:1007A00005980F2866DCFFE704980021C4F20101D8
:1007B000884205D0FFE70498B0F1804F0DD1FFE7E4
:1007C00005996FF01F0000EB8101012000FA01F292
:1007D0000699486A104348624BE0049840F2004191
:1007E000C4F20001884210D0FFE7049840F60001EF
:1007F000C4F20001884208D0FFE7049840F60041A7
:10080000C4F2000188420DD1FFE705996FF01F0087
:1008100000EB8101022000FA01F20699486A1043B8
:10082000486225E0049844F20001C4F201018842C4
:1008300010D0FFE7049844F20041C4F2010188425D
:1008400008D0FFE7049844F60001C4F20101884291
:100850000DD1FFE705996FF01F0000EB8101032028
:1008600000FA01F20699486A10434862FFE7FFE781
:10087000FFE7FFE7FFE70498012100F059FB049927
:10088000086820F0100008600498C06A40080290D0
:10089000039801281DD1FFE70499886920F07000B2
:1008A00088610499886940F06000886104998869CA
:1008B00040F0080088610298049948630499086A26
:1008C00020F0020008620499086A40F00100086202
:1008D00065E0039802281DD1FFE70499886920F498
:1008E000E04088610499886940F4C04088610499B7
:1008F000886940F4006088610298049988630499CB
:10090000086A20F0200008620499086A40F010008C
:10091000086243E0039803281DD1FFE70499C869E2
:1009200020F07000C8610499C86940F06000C86197
:100930000499C86940F00800C86102980499C86326
:100940000499086A20F4007008620499086A40F467
:100950008070086221E0039804281DD1FFE7049904
:10096000C86920F4E040C8610499C86940F4C040F7
:10097000C8610499C86940F40060C861029804998C
:1009800008640499086A20F4005008620499086A0F
:1009900040F480500862FFE7FFE7FFE7FFE70498B5
:1009A0000021C4F20101884206D1FFE70499486C96
:1009B00040F400404864FFE70499086840F00100F3
:1009C000086008B080BD000080B586B08DF81700C3
:1009D00004919DF9170003A902AA00F03DFC9DF9BE
:1009E000170001A96A4600F007F80198049900F081
:1009F0002DFB06B080BD000080B588B08DF81F00CB
:100A0000069105929DF91F0004A903AA00F024FC99
:100A100004980021C4F20201884256D1FFE70398EE
:100A200002900F284FD80299DFE801F008104D4DD1
:100A30004D18204D2A333C4D4D4D4D4506994FF0F4
:100A4000804008600599012008603DE006994FF05C
:100A50008040086005990220086035E006994FF053
:100A6000804008600599012008602DE0069940F259
:100A70000040C4F20000086005990120086023E0EE
:100A800006990020C4F20100086005990120086061
:100A90001AE006990020C4F20100086005990220BE
:100AA000086011E006990020C4F201000860059971
:100AB0000320086008E006994FF08040086005991F
:100AC0000120086000E0FFE7A1E0049840F2004147
:100AD000C4F2020188425BD1FFE703980338014664
:100AE0000191072852D80199DFE801F0040C162083
:100AF0002A343E4806994FF080400860059902204C
:100B0000086044E0069940F20040C4F2000008602A
:100B10000599012008603AE0069940F20040C4F2CD
:100B20000000086005990220086030E0069940F650
:100B30000000C4F20000086005990120086026E06A
:100B4000069940F60000C4F20000086005990220F2
:100B500008601CE0069940F60000C4F2000008603E
:100B600005990320086012E0069940F60000C4F2DF
:100B70000000086005990420086008E006994FF01D
:100B80008040086005990320086000E0FFE73DE031
:100B9000049840F60001C4F20201884235D1FFE713
:100BA000039806380146009103282CD80099DFE805
:100BB00001F0020C1620069940F20040C4F2000039
:100BC00008600599012008601EE0069940F2004087
:100BD000C4F20000086005990220086014E006993C
:100BE00040F20040C4F2000008600599032008604C
:100BF0000AE0069940F20040C4F20000086005993E
:100C00000420086000E0FFE7FFE7FFE7FFE708B028
:100C100080BD000043F63001C4F20201086840F0D4
:100C2000010008607047000043F63001C4F2020181
:100C3000086840F0020008607047000043F6300189
:100C4000C4F20201086840F0040008607047000028
:100C500043F63001C4F20201086840F00800086061
:100C60007047000081B043F60041C4F202010868F9
:100C700020F007000860086840F00200086043F6B2
:100C80000001C4F20201086840F001000860FFE7BB
:100C900043F60000C4F2020000688007002801D477
:100CA000FFE7F5E743F60001C4F20201086820F00F
:100CB0008070086043F60402C4F2020200921068D9
:100CC00020F480001060106810601068542363F3F3
:100CD0008E1010601068082363F305001060106820
:100CE00020F440301060086840F080700860FFE732
:100CF00043F60000C4F20200006800F0007100201A
:100D0000B0EB516F01D0FFE7F2E743F60801C4F200
:100D10000201086820F003000860086840F0020043
:100D20000860FFE743F60800C4F20200006800F024
:100D30000C00082801D0FFE7F4E743F60801C4F2ED
:100D40000201086820F0F0000860086820F4E05014
:100D50000860086840F480500860086820F460402B
:100D6000086040F20001C2F200014BF60050C0F2F0
:100D70000150086001B0704780B500F001F880BDF7
:100D800040F27801C2F20001086801300860704743
:100D90004EF68851CEF20001086840F470000860F9
:100DA0007047000080B540F20040C4F2000000F03F
:100DB000A5FAC0B3FFE740F27400C2F20000016878
:100DC000013101600068B0F5FA6F11D9FFE740F218
:100DD0007400C2F20000006840097C2808D8FFE7D0
:100DE00040F20401C2F200014FF07A50086019E0AD
:100DF00040F27400C2F200000068B0F57A6F10D9BA
:100E0000FFE740F20401C2F2000143F23330C3F6BF
:100E10003370086040F27401C2F2000100200860E3
:100E2000FFE7FFE7FFE740F20040C4F2000000F0F8
:100E3000F9F980BD81B000900099C86840F00100C8
:100E4000C86001B07047000080B584B00390029183
:100E50000398029900F06CF80398FFF7EBFF00206D
:100E6000019003980021C4F20101884203D1FFE7F9
:100E70001920019050E00398B0F1804F03D1FFE7B3
:100E80001C20019047E0039840F20041C4F20001A9
:100E9000884203D1FFE71D2001903BE0039840F614
:100EA0000001C4F20001884203D1FFE71E20019037
:100EB0002FE0039840F60041C4F20001884203D1BC
:100EC000FFE73220019023E0039844F20001C4F2CE
:100ED0000101884203D1FFE71820019017E0039831
:100EE00044F20041C4F20101884203D1FFE7192016
:100EF00001900BE0039844F60001C4F2010188421E
:100F000003D1FFE71A200190FFE7FFE7FFE7FFE7C4
:100F1000FFE7FFE7FFE7FFE79DF9040000F026F990
:100F20009DF90400022100F05BF904B080BD0000CF
:100F300080B582B00190009101980021C4F20101B6
:100F4000884209D1FFE743F64401C4F20201086870
:100F500040F00100086068E00198B0F1804F09D1CD
:100F6000FFE743F64001C4F20201086840F00100C7
:100F7000086059E0019840F20041C4F20001884243
:100F800009D1FFE743F64001C4F20201086840F0CE
:100F90000200086047E0019840F60001C4F2000139
:100FA000884209D1FFE743F64001C4F20201086814
:100FB00040F00400086035E0019840F60041C4F2BA
:100FC0000001884209D1FFE743F64001C4F2020163
:100FD000086840F00800086023E0019844F200012E
:100FE000C4F20101884209D1FFE743F64401C4F28B
:100FF0000201086840F48030086011E0019844F66E
:101000000001C4F20101884209D1FFE743F644011F
:10101000C4F20201086840F480200860FFE7FFE79F
:10102000FFE7FFE7FFE7FFE7FFE70198009900F020
:101030000DF80199086820F010000860019908680F
:1010400040F00100086002B080BD000086B005904D
:10105000049143F60800C4F20200006880070028EB
:1010600006D5FFE74BF60050C0F2015002900EE0AB
:1010700043F60800C4F202000068002030B9FFE720
:1010800042F20040C0F2F4000290FFE7FFE705984B
:10109000B0F1804F08D0FFE7059840F60041C4F258
:1010A0000001884223D1FFE7029847F22361C7F687
:1010B000B311A0FB0110800BADF80E000298BDF833
:1010C0000E10B0FBF1F044F6D351C1F26201A0FB67
:1010D00001108009049948430190BDF80E000138C1
:1010E00005998862019801380599C86224E0029840
:1010F00047F22361C7F6B311A0FB0110800BADF8D6
:101100000E000298BDF80E10B0FBF1F044F6D3517A
:10111000C1F26201A0FB0110800904994843ADF8B7
:101120000200BDF80E00013805998862BDF8020082
:1011300001380599C862FFE706B0704781B08DF8A5
:1011400003009DF9030000280ED4FFE79DF903106A
:1011500001F01F02012090404A094EF20011CEF228
:10116000000141F82200FFE701B0704781B08DF81F
:1011700003009DF9030000280ED4FFE79DF903103A
:1011800001F01F02012090404A094EF20011CEF2F8
:10119000000141F82200FFE701B0704782B08DF8EE
:1011A000070000919DF9070000280AD4FFE7009886
:1011B00000019DF907104EF20042CEF20002885461
:1011C0000BE0009800019DF8071001F00F014EF6AA
:1011D0001452CEF200028854FFE702B070470000BC
:1011E00082B08DF8070000919DF9070000280AD40D
:1011F000FFE7009800019DF907104EF20042CEF281
:10120000000288540BE0009800019DF8071001F0DF
:101210000F014EF61452CEF200028854FFE702B0DE
:101220007047000081B000900099086920F001002B
:10123000086101B07047000081B000900099012062
:1012400000FA01F243F61441C4F2010108681043A8
:10125000086001B07047000085B08DF8130003915D
:1012600002929DF8130000F00F000190019802997E
:1012700008609DF9130000110090009830B9FFE755
:1012800003990020C4F20200086035E000980128AC
:1012900007D1FFE7039940F20040C4F20200086062
:1012A00029E00098022807D1FFE7039940F60000E3
:1012B000C4F2020008601DE00098032807D1FFE790
:1012C000039940F60040C4F20200086011E0009863
:1012D000072807D1FFE7039941F60040C4F2020056
:1012E000086005E003990020C4F202000860FFE7EF
:1012F000FFE7FFE7FFE7FFE705B0704781B0009029
:101300000098006900F0010001B0704782B00190C0
:10131000019901208840009043F61440C4F2010076
:10132000006800990840401AB0FA80F0400902B005
:101330007047000080B582B00020019000F03CF8BA
:10134000FFE740F27C00C2F200000068B8B9FFE796
:1013500040F27000C2F2000090F9000040F2040177
:10136000C2F2000191ED000A40F20801C2F2000150
:1013700091ED001A80EE010AFFF72CF91BE040F214
:101380007C00C2F200000068012813D1FFE740F2A0
:101390007000C2F2000090F9000040F20801C2F2B1
:1013A000000191ED001AB7EE000A80EE010AFFF786
:1013B00011F9FFE7FFE7C4E780B586B0FFF752FCFD
:1013C00040F60000C4F2020001900D2102910022BB
:1013D0000392FFF769F80198029901220492FFF73E
:1013E000E1F801980299039B1A46FEF797FF0499CA
:1013F00040F20040C4F20000FFF726FD40F270000A
:10140000C2F20000059090F90000FFF73BF9059843
:1014100090F9000040F20801C2F2000191ED000ACB
:10142000BCEEC00A10EE101AFFF7CEFA06B080BD6F
:10143000F1EE100A4FF6FF71C0F2C03120EA010050
:1014400040F04070E1EE100A704700007014000890
:101450000000002010000000D401000880140008E3
:101460001000002070060000F001000800000000DD
:101470000024F4000000803F0000803F00000000D6
:040000050800019955
:00000001FF
