:020000040800F2
:100000008806002039020008410200084302000867
:1000100045020008470200084902000800000000ED
:100020000000000000000000000000004B0200087B
:100030004D020008000000004F020008D50D000826
:10004000530200085302000853020008530200083C
:10005000530200085302000853020008530200082C
:10006000530200085302000853020008530200081C
:10007000530200085302000853020008530200080C
:100080005302000853020008530200080000000059
:100090000000000000000000000000005302000803
:1000A00053020008530200085302000853020008DC
:1000B00053020008010E0008530200085302000812
:1000C00053020008530200085302000853020008BC
:1000D0005302000853020008530200080000000009
:1000E000F902000853020008530200080000000053
:1000F00000000000000000000000000053020008A3
:1001000000000000530200085302000853020008D8
:1001100000000000000000000000000000000000DF
:10012000530200085302000853020008530200085B
:100130005302000800000000000000000000000062
:100140000000000000000000000000005302000852
:10015000530200085302000853020008530200082B
:1001600053020008530200080000000000000000D5
:10017000000000000000000000000000000000007F
:100180000000000053020008000000000000000012
:10019000530200085302000800F002F800F03CF897
:1001A0000AA090E8000C82448344AAF10107DA45D2
:1001B00001D100F031F8AFF2090EBAE80F0013F0E8
:1001C000010F18BFFB1A43F001031847641B00001E
:1001D000841B0000103A24BF78C878C1FAD85207AF
:1001E00024BF30C830C144BF04680C6070470000B1
:1001F0000023002400250026103A28BF78C1FBD830
:10020000520728BF30C148BF0B6070471FB501F0CF
:100210007CFD1FBD10B510BD00F031F81146FFF791
:10022000F5FF01F031F900F04FF803B4FFF7F2FFEA
:1002300003BC00F057F80000094880470948004710
:10024000FEE7FEE7FEE7FEE7FEE7FEE7FEE7FEE786
:10025000FEE7FEE704480549054A064B70470000E3
:10026000ED0D000899010008880000208806002094
:10027000880200208802002070477047704775464A
:1002800000F02CF8AE4605006946534620F0070002
:10029000854618B020B5FFF7DDFFBDE820404FF0E0
:1002A00000064FF000074FF000084FF0000BAC467F
:1002B000ACE8C009ACE8C009ACE8C009ACE8C009CA
:1002C00021F007018D46704710B50446AFF300805A
:1002D0002046BDE81040FFF7A8BF00000048704767
:1002E0001000002001491820ABBEFEE726000200E6
:1002F000704700000000000080B582B00D2001F0C2
:10030000AFF898B3FFE740F20400C2F2000090F9A2
:100310000000019040F20800C2F20000006801F005
:1003200083FC41EC100B9FED121B51EC110B53ECB5
:10033000102B01F0DDF941EC100B51EC100B01F02A
:10034000FDF80146019800EE101A00F071F940F234
:100350007401C2F200010020086040F28001C2F284
:10036000000108600D2001F011F8FFE702B080BD28
:10037000000000000000E03F80B586B005900491C9
:100380000392029343F64401C4F20201086840F468
:100390008040086005980021C4F20201884203D120
:1003A000FFE70020019026E0059840F20041C4F2EA
:1003B0000201884203D1FFE7012001901AE005986D
:1003C00040F60001C4F20201884203D1FFE7022097
:1003D00001900EE0059840F60041C4F20201884207
:1003E00003D1FFE70320019002E004200190FFE722
:1003F000FFE7FFE7FFE70498C11700EB917121F0D9
:100400000301401A82000F2000FA02F343F60802AB
:10041000C4F201028858984388500198049BD91768
:1004200003EB917121F003015B1A9B0000FA03F3C7
:10043000885818438850039860B9FFE70499012051
:1004400000FA01F243F60C41C4F2010108681043BE
:1004500008602BE0039801280CD1FFE704990120E4
:1004600000FA01F243F60841C4F2010108681043A2
:1004700008601AE00398022816D1FFE704990120CA
:1004800000FA01F343F60842C4F20102116819436D
:100490001160049900FA01F243F60C41C4F2010123
:1004A000086810430860FFE7FFE7FFE704990120B1
:1004B00000FA01F243F60041C4F20101086810435A
:1004C0000860002000900498042804DCFFE70498EA
:1004D000063000900AE00498092803DCFFE71720A3
:1004E000009002E028200090FFE7FFE79DF9000060
:1004F000029900F0FDFE9DF9000000F0C9FE06B073
:1005000080BD000080B584B00390029101920398F1
:100510000021C4F20201884203D1FFE700F0A8FBEA
:10052000FFE7039840F20041C4F20201884203D180
:10053000FFE700F0A7FBFFE7039840F60001C4F2D5
:100540000201884203D1FFE700F0A6FBFFE7039812
:1005500040F60041C4F20201884203D1FFE700F0F7
:10056000A5FBFFE703980299019A00F003F804B095
:1005700080BD000083B0029001910092019841007B
:10058000032000FA01F2029908689043086000987D
:100590000199490000FA01F20299086810430860C5
:1005A00003B0704783B0029001910092019841001E
:1005B000032000FA01F2029988689043886000984D
:1005C0000199490000FA01F2029988681043886095
:1005D00003B0704783B0029001910092019901200D
:1005E00000FA01F202994868904348600098019926
:1005F00000FA01F2029948681043486003B070475E
:1006000083B002900191009201984100032000FA0A
:1006100001F20299C8689043C860009801994900A6
:1006200000FA01F20299C8681043C86003B070472D
:1006300080B588B08DF81F008DED060A9DF91F006A
:1006400005A904AA00F0B2FE9DF91F0003A902AAA1
:1006500000F000FA0398C06A013000EE100AB8EE0C
:10066000400A9DED061A20EE010AB7EE001A30EEA0
:10067000010A8DED010A0298012808D1FFE79DEDDE
:10068000010A0398BCEEC00A80ED0D0A26E002982C
:10069000022808D1FFE79DED010A0398BCEEC00ACD
:1006A00080ED0E0A19E00298032808D1FFE79DEDBE
:1006B000010A0398BCEEC00A80ED0F0A0CE0029814
:1006C000042808D1FFE79DED010A0398BCEEC00A9B
:1006D00080ED100AFFE7FFE7FFE7FFE708B080BD06
:1006E00080B588B08DF81F009DF91F0006A905AAE6
:1006F00000F05CFE9DF91F0004A903AA00F0AAF90E
:100700000698059902220192FFF7FCFE019A0698CD
:100710000599FFF747FF069805990022FFF75AFF52
:10072000069805990122FFF76BFF0598002861D410
:10073000FFE7059807285DDCFFE704980021C4F275
:100740000101884205D0FFE70498B0F1804F0AD13B
:10075000FFE705988100012000FA01F20699086A76
:100760001043086245E0049840F20041C4F20001E1
:10077000884210D0FFE7049840F60001C4F200015F
:10078000884208D0FFE7049840F60041C4F2000117
:1007900088420AD1FFE705988100022000FA01F2A1
:1007A0000699086A1043086222E0049844F20001A6
:1007B000C4F20101884210D0FFE7049844F20041DE
:1007C000C4F20101884208D0FFE7049844F6000112
:1007D000C4F2010188420AD1FFE705988100032095
:1007E00000FA01F20699086A10430862FFE7FFE782
:1007F000FFE76EE0059808286ADBFFE705980F28F9
:1008000066DCFFE704980021C4F20101884205D0AC
:10081000FFE70498B0F1804F0DD1FFE705996FF025
:100820001F0000EB8101012000FA01F20699486ADD
:10083000104348624BE0049840F20041C4F20001CA
:10084000884210D0FFE7049840F60001C4F200018E
:10085000884208D0FFE7049840F60041C4F2000146
:1008600088420DD1FFE705996FF01F0000EB810171
:10087000022000FA01F20699486A1043486225E016
:10088000049844F20001C4F20101884210D0FFE74D
:10089000049844F20041C4F20101884208D0FFE705
:1008A000049844F60001C4F2010188420DD1FFE72B
:1008B00005996FF01F0000EB8101032000FA01F29F
:1008C0000699486A10434862FFE7FFE7FFE7FFE742
:1008D000FFE70498012100F0D5FB0499086820F097
:1008E000100008600498C06A40080290039801282C
:1008F0001DD1FFE70499886920F070008861049990
:10090000886940F0600088610499886940F00800B7
:1009100088610298049948630499086A20F00200EB
:1009200008620499086A40F00100086265E00398D3
:1009300002281DD1FFE70499886920F4E04088610E
:100940000499886940F4C04088610499886940F43A
:10095000006088610298049988630499086A20F00D
:10096000200008620499086A40F01000086243E021
:10097000039803281DD1FFE70499C86920F070008F
:10098000C8610499C86940F06000C8610499C869E9
:1009900040F00800C86102980499C8630499086A85
:1009A00020F4007008620499086A40F480700862BC
:1009B00021E0039804281DD1FFE70499C86920F4B9
:1009C000E040C8610499C86940F4C040C861049916
:1009D000C86940F40060C8610298049908640499E9
:1009E000086A20F4005008620499086A40F48050B4
:1009F0000862FFE7FFE7FFE7FFE704980021C4F282
:100A00000101884206D1FFE70499486C40F4004098
:100A10004864FFE70499086840F00100086008B0E6
:100A200080BD000080B586B08DF8170004919DF957
:100A3000170003A902AA00F0B9FC9DF9170001A94B
:100A40006A4600F007F80198049900F0A9FB06B087
:100A500080BD000080B588B08DF81F00069105921A
:100A60009DF91F0004A903AA00F0A0FC049800212E
:100A7000C4F20201884256D1FFE7039802900F2882
:100A80004FD80299DFE801F008104D4D4D18204D68
:100A90002A333C4D4D4D4D4506994FF0804008603E
:100AA0000599012008603DE006994FF080400860FC
:100AB00005990220086035E006994FF080400860F3
:100AC0000599012008602DE0069940F20040C4F22B
:100AD0000000086005990120086023E006990020C5
:100AE000C4F2010008600599012008601AE0069927
:100AF0000020C4F20100086005990220086011E09E
:100B000006990020C4F201000860059903200860DE
:100B100008E006994FF080400860059901200860C0
:100B200000E0FFE7A1E0049840F20041C4F20201B6
:100B300088425BD1FFE703980338014601910728FB
:100B400052D80199DFE801F0040C16202A343E48FF
:100B500006994FF08040086005990220086044E043
:100B6000069940F20040C4F2000008600599012097
:100B700008603AE0069940F20040C4F200000860C4
:100B800005990220086030E0069940F60000C4F2A2
:100B90000000086005990120086026E0069940F6EB
:100BA0000000C4F2000008600599022008601CE003
:100BB000069940F60000C4F2000008600599032081
:100BC000086012E0069940F60000C4F200000860D8
:100BD00005990420086008E006994FF080400860FD
:100BE00005990320086000E0FFE73DE0049840F627
:100BF0000001C4F20201884235D1FFE703980638AC
:100C00000146009103282CD80099DFE801F0020C7E
:100C10001620069940F20040C4F2000008600599D1
:100C2000012008601EE0069940F20040C4F2000076
:100C3000086005990220086014E0069940F200401F
:100C4000C4F2000008600599032008600AE00699D4
:100C500040F20040C4F200000860059904200860DA
:100C600000E0FFE7FFE7FFE7FFE708B080BD000017
:100C700043F63001C4F20201086840F00100086048
:100C80007047000043F63001C4F20201086840F0EA
:100C9000020008607047000043F63001C4F2020110
:100CA000086840F0040008607047000043F6300117
:100CB000C4F20201086840F00800086070470000B4
:100CC00081B043F60041C4F20201086820F0070039
:100CD0000860086840F00200086043F60001C4F2B2
:100CE0000201086840F001000860FFE743F60000D9
:100CF000C4F2020000688007002801D4FFE7F5E78E
:100D000043F60001C4F20201086820F08070086018
:100D100043F60402C4F202020092106820F480003C
:100D20001060106810601068542363F38E10106018
:100D30001068082363F305001060106820F4403049
:100D40001060086840F080700860FFE743F600001C
:100D5000C4F20200006800F000710020B0EB516F97
:100D600001D0FFE7F2E743F60801C4F20201086888
:100D700020F003000860086840F002000860FFE708
:100D800043F60800C4F20200006800F00C000828D6
:100D900001D0FFE7F4E743F60801C4F20201086856
:100DA00020F0F0000860086820F4E050086008684F
:100DB00040F480500860086820F46040086040F209
:100DC0000001C2F200014BF60050C0F20150086071
:100DD00001B0704780B500F001F880BD40F27C01A1
:100DE000C2F2000108680130086070474EF6885171
:100DF000CEF20001086840F47000086070470000FF
:100E000080B584B040F20040C4F2000000F020FB46
:100E1000002800F0B180FFE740F27000C2F200004D
:100E20000168013101600068B0F5FA7F40F29D80F1
:100E3000FFE740F27400C2F200000068002844D1CD
:100E4000FFE740F28000C2F20000039090ED000A3C
:100E5000B7EE001A30EE010A80ED000A90ED000AAC
:100E600030EE000AB3EE021A8DED021A80EE010A8E
:100E700010EE100A00F0D8FE41EC100B51EC100BF4
:100E80009FED3F0B53EC102B00F08AFB41EC100B55
:100E900051EC100B00F052FB9DED021A0146039835
:100EA00040F27802C2F20002116090ED000AB4EE46
:100EB000410AF1EE10FA07D1FFE740F27401C2F2E5
:100EC000000101200860FFE748E040F27400C2F230
:100ED00000000068012840D1FFE740F28000C2F224
:100EE0000000019090ED000ABFEE001A30EE010AFA
:100EF00080ED000A90ED000A30EE000AB3EE021A0F
:100F000080EE010A10EE100A00F08EFE41EC100B8C
:100F100051EC100B9FED1A0B53EC102B00F040FB23
:100F200041EC100B51EC100B00F008FB014601984E
:100F300040F27802C2F20002116090ED000AB5EEB4
:100F4000400AF1EE10FA07D1FFE740F27401C2F255
:100F5000000100200860FFE7FFE7FFE740F27001B3
:100F6000C2F2000100200860FFE740F20040C4F236
:100F7000000000F001FAFFE704B080BD00BF00BF31
:100F8000000000000000E03F81B000900099C868B8
:100F900040F00100C86001B07047000080B584B027
:100FA000039002910398029900F06CF80398FFF700
:100FB000EBFF0020019003980021C4F20101884258
:100FC00003D1FFE71920019050E00398B0F1804F62
:100FD00003D1FFE71C20019047E0039840F2004155
:100FE000C4F20001884203D1FFE71D2001903BE0DD
:100FF000039840F60001C4F20001884203D1FFE7E4
:101000001E2001902FE0039840F60041C4F2000139
:10101000884203D1FFE73220019023E0039844F295
:101020000001C4F20101884203D1FFE718200190BA
:1010300017E0039844F20041C4F20101884203D151
:10104000FFE7192001900BE0039844F60001C4F279
:101050000101884203D1FFE71A200190FFE7FFE773
:10106000FFE7FFE7FFE7FFE7FFE7FFE79DF9040082
:1010700000F026F99DF90400022100F05BF904B0AC
:1010800080BD000080B582B00190009101980021E0
:10109000C4F20101884209D1FFE743F64401C4F2DA
:1010A0000201086840F00100086068E00198B0F1B2
:1010B000804F09D1FFE743F64001C4F202010868FE
:1010C00040F00100086059E0019840F20041C4F28C
:1010D0000001884209D1FFE743F64001C4F2020152
:1010E000086840F00200086047E0019840F60001FF
:1010F000C4F20001884209D1FFE743F64001C4F27F
:101100000201086840F00400086035E0019840F6EC
:101110000041C4F20001884209D1FFE743F64001D3
:10112000C4F20201086840F00800086023E001985A
:1011300044F20001C4F20101884209D1FFE743F6FD
:101140004401C4F20201086840F48030086011E0F4
:10115000019844F60001C4F20101884209D1FFE779
:1011600043F64401C4F20201086840F4802008609C
:10117000FFE7FFE7FFE7FFE7FFE7FFE7FFE701988C
:10118000009900F00DF80199086820F0100008603F
:101190000199086840F00100086002B080BD0000BD
:1011A00086B00590049143F60800C4F2020000687E
:1011B0008007002806D5FFE74BF60050C0F201502B
:1011C00002900EE043F60800C4F20200006800201E
:1011D00030B9FFE742F20040C0F2F4000290FFE7AE
:1011E000FFE70598B0F1804F08D0FFE7059840F67B
:1011F0000041C4F20001884223D1FFE7029841F286
:101200005971CDF2B711A0FB0110400BADF80E00E3
:101210000298BDF80E10B0FBF1F044F6D351C1F2C4
:101220006201A0FB01108009049948430190BDF8B8
:101230000E00013805998862019801380599C86245
:1012400024E0029841F25971CDF2B711A0FB0110D0
:10125000400BADF80E000298BDF80E10B0FBF1F097
:1012600044F6D351C1F26201A0FB01108009049938
:101270004843ADF80200BDF80E00013805998862B8
:10128000BDF8020001380599C862FFE706B0704753
:1012900081B08DF803009DF9030000280ED4FFE70C
:1012A0009DF9031001F01F02012090404A094EF2FF
:1012B0000011CEF2000141F82200FFE701B07047B3
:1012C00081B08DF803009DF9030000280ED4FFE7DC
:1012D0009DF9031001F01F02012090404A094EF2CF
:1012E0000011CEF2000141F82200FFE701B0704783
:1012F00082B08DF8070000919DF9070000280AD4FC
:10130000FFE7009800019DF907104EF20042CEF26F
:10131000000288540BE0009800019DF8071001F0CE
:101320000F014EF61452CEF200028854FFE702B0CD
:101330007047000082B08DF8070000919DF907000A
:1013400000280AD4FFE7009800019DF907104EF22B
:101350000042CEF2000288540BE0009800019DF894
:10136000071001F00F014EF61452CEF2000288541D
:10137000FFE702B07047000081B000900099086953
:1013800020F00100086101B07047000081B00090BA
:101390000099012000FA01F243F61441C4F2010160
:1013A00008681043086001B07047000085B08DF8F0
:1013B0001300039102929DF8130000F00F000190BA
:1013C0000198029908609DF913000011009000989F
:1013D00030B9FFE703990020C4F20200086035E04D
:1013E0000098012807D1FFE7039940F20040C4F2BA
:1013F0000200086029E00098022807D1FFE703995E
:1014000040F60000C4F2020008601DE000980328C6
:1014100007D1FFE7039940F60040C4F202000860DC
:1014200011E00098072807D1FFE7039941F6004033
:10143000C4F20200086005E003990020C4F2020033
:101440000860FFE7FFE7FFE7FFE7FFE705B070474A
:1014500081B000900098006900F0010001B0704771
:1014600082B00190019901208840009043F6144019
:10147000C4F20100006800990840401AB0FA80F0F8
:10148000400902B07047000080B582B00020019092
:1014900000F018F8FFE740F20400C2F2000090F9F3
:1014A000000040F27801C2F2000191ED000A40F222
:1014B0000801C2F2000191ED001A80EE010AFFF767
:1014C000B7F8E8E780B586B0FFF7FAFB40F6000012
:1014D000C4F2020001900D21029100220392FFF755
:1014E00011F80198029901220492FFF789F80198F6
:1014F0000299039B1A46FEF73FFF049940F2004011
:10150000C4F20000FFF74AFD40F20400C2F20000FE
:10151000059090F90000FFF7E3F8059890F90000B6
:1015200040F20801C2F2000191ED000ABCEEC00ACF
:1015300010EE101AFFF776FA06B080BD21F00042D7
:1015400001F00043A2F16052B2F5801F28BFD2F132
:101550007F6C0BD95FEA001C43EAC20242EB507079
:1015600018BF704728BF20F001007047B2F5801FF8
:10157000BCBF184670474FEA410C1CF5001F02D251
:10158000084600F0CFBB70B500F00CFA00000089EF
:10159000FFF7F6BF4FF00040A0F580007047000055
:1015A00010B591EA030F48BF83F0004300F1568263
:1015B000841A71EB030C05D2121943EB0C03001BC8
:1015C00061EB0C014FEA1154A4EB135CDFF81CE152
:1015D0001EEA430F18BF9EEA445F00F0748021EAC0
:1015E000045123EA0E0343F48013DCF1200E32D3BE
:1015F00022FA0CFE10EB0E0023FA0CFE41EB0E015A
:10160000CCF1200E03FA0EFE10EB0E00CCF1200EF2
:1016100051F10001B1F5801F32D201EB045112FAF1
:101620000EF2BDE8104058BF7047401C38BF5FEA5B
:10163000420218BF7047002814BF20F0010041F19A
:1016400000014FEA410313F5001F38BF7047A1F1B5
:10165000C04100F0F5B9012A43EB0302ACF1200CC4
:10166000DCF11F0E32BF4FF0000E23FA0CF310EB2B
:10167000030041EB0451B4EB115FD0D0A1EB045156
:1016800001F58011490801EB04515FEA30000ED3E7
:1016900050F1000038BF12FA0EFE08D1BDE810402C
:1016A000C9E7401C38BF5FEA4202CAD1C3E7BDE8C0
:1016B00010404FEA410313F5001F38BF7047A1F1F6
:1016C000C04100F0BDB99EEA445F08D011EA5E0F48
:1016D000BDE8104004BF01F0004100207047BDE8A4
:1016E000104070B500F05EF964FBBE3E0000E0FF04
:1016F0002DE9C04130B4DFF8A4C23CEA111418BF90
:101700003CEA131400F0ED801CEA111481EA030591
:1017100044EAD57418BF1CEA131500F0C880A4EB86
:10172000050404F17F7404F500344FF0004545EAE8
:10173000C12145EAC32341EA505143EA52534FEADB
:10174000C0204FEAC222994208BF904200F09D801B
:101750004FEA13650FF24416765D4FEA134506FB18
:1017600005F7C7F1807706FB07F74FEAD737A7FBE6
:1017700003687642A7FB06CEC8F5803838BFA8F1CB
:10178000010807FB08E6A6FB028C4FF0000EE6FB03
:1017900003CEDCF1000CCEF1004E38BFAEF1010EED
:1017A000A6FB0C584FF00007E6FB0E87A1FB08C60E
:1017B000A0FB07CE16EB0E064FF0000545F1000525
:1017C000E1FB076515F1E04E7EBFA4F580345FEACA
:1017D00046066D4116F1800745F100054FEA1727CF
:1017E00047EA05674FEA15254FEA0666A6F1DE4689
:1017F000B6F1805F20D9384605EBC47124F0010CA6
:1018000001EB0C11BCF1FE6F02D8F0BCBDE8008109
:1018100024425CBF01F5801E9EEAC47F02D4F0BC66
:10182000BDE80081244200F13980A1F1C041F0BC43
:10183000BDE8004100F004B94FEAD02040EA415031
:101840004FEAD1214FEAD22242EA43524FEAD32350
:10185000A7FB028607FB036605FB02661EEA0E0F66
:1018600058BFA6EB0056B6EB00564FEA520E4EEAB2
:10187000C37E18EB0E0E56EB530EBCD518EB0208C8
:101880005E417F1C55F10005B5E74FF480154FF020
:1018900000074FF000064FF00008ACE701F1C0412F
:1018A00001F000414FF00000F0BCBDE800810CEAFF
:1018B000131511EA0C1F00D00CE013EA0C1F00F006
:1018C00026804FF0000081EA030101F00041F0BCE6
:1018D000BDE80081F0BCBDE8004181EA030100F0F1
:1018E000AFB8F0BCBDE8004170B500F05BF800BFD8
:1018F000097EFC3E00F007B84FF0000081EA0301CA
:1019000001F00041704781EA030100F099B8F0BC92
:10191000BDE8004122494FF000007047FFFDFBF990
:10192000F7F5F4F2F0EEEDEBE9E8E6E4E3E1E0DE12
:10193000DDDBDAD8D7D5D4D3D1D0CFCDCCCBCAC884
:10194000C7C6C5C4C2C1C0BFBEBDBCBBBAB9B8B7AB
:10195000B6B5B4B3B2B1B0AFAEADACABAAA9A8A89E
:10196000A7A6A5A4A3A3A2A1A09F9F9E9D9C9C9B6C
:101970009A99999897979695959493939291919017
:101980008F8F8E8E8D8C8C8B8B8A898988888787A8
:101990008685858484838382828181800000FF071D
:1019A0000000F87F0EF1020E2EF0030E5EF8046BBD
:1019B000364205D4012A43EB030515F5001F12D862
:1019C000012841EB010C1CF5001F0CD80ED14FEA89
:1019D000D17C0CEB4C0C0CF1020C15F5001F08BF70
:1019E0004CEBD37C04E04FF0080C01E04FEAD37CD1
:1019F0000CEB4C0526FA05F606F00706B6F1040CCA
:101A000006D20EEB860CBDE870404CF0010C60472E
:101A1000DFE80CF0090B02024FF00041A1F50021B4
:101A20004FF0000070BD19461046012851EB01042B
:101A300018BFD4F5001484BF002001F0004170BD30
:101A40000808A0F500114FEA3101704710B591EA7E
:101A5000030F48BF83F000433FF5AAAD841A71EB32
:101A6000030C07D28CF0004C121943EB0C03001B43
:101A700061EB0C014FEA1154A4EB135CDFF8A4E115
:101A80001EEA430F18BF9EEA445F00F0B48021EACB
:101A9000045123EA6E035242C3EB6E0338BF5B1E50
:101AA000DCF1200E25D322FA0CFE10EB0E0043FAD7
:101AB0000CFE41EB0E01CCF1200E03FA0EFE10EBF2
:101AC0000E00CCF1200E51F1000129D401EB04519C
:101AD00012FA0EF2BDE8104058BF7047401C1CBF00
:101AE000B2F1004F704700280CBF491C20F00100E4
:101AF000704712EB020E43EB030218BF4FF0010ECA
:101B00004EEA4202ACF1200CDCF11E0E56D943FA2B
:101B10000CFE10EB0E00CCF11E0E51F1FF31D5D5AD
:101B20000EF1010E12FA0EFE404141EB010101EBF4
:101B3000445C5FEA5C5C10D901EB045110EBDE7091
:101B400038BFBEF1004FBDE8104018BF70470028F5
:101B50000CBF491C20F00100704734D24FEAD42C4E
:101B600024F4006411F500111BD0B1FA81F20B3A94
:101B7000A41AA41ED2F12003914030FA03F31943B2
:101B8000904001EBCC7101EB0451002CBDE81040FA
:101B9000A8BF704701F1C04101F000414FF00000C3
:101BA0007047B0FA80F310FA03F102D1BDE810409B
:101BB0007047E41A173C4805C90AE2E701EB0451F3
:101BC000BDE81040704749104FEA300001EB045166
:101BD000BDE8104002E04FF0000170474A0008BF26
:101BE0000042F8D0B2F5001F28BF704701F0004155
:101BF0004FF0000070479EEA445F07D011EA5E0F85
:101C0000BDE8104004BF002100207047BDE810402F
:101C100070B5FFF7C7FE00BF40DFF63E104683F009
:101C2000004170470000E0FF43004FEAD30C4FEA49
:101C30003C0C43401FBF40070CF1605113F0FE4FB6
:101C400070471CF0006F03D10CF00041002070477A
:101C50000CF0004343EA507040EACC0010B500F0AD
:101C60000EF800BF000000924FEA0001FFF7E8BE47
:101C70004FF00041A1F500214FF0000070470EF138
:101C8000020E2EF0030E5EF8044B244204D44FEAF9
:101C90004102B2F17F4F11D84FEA4003B3F17F4FB9
:101CA0000CD80ED14FEAD07C0CEB4C0C0CF1020C92
:101CB000B2F17F4F08BF4CEBD17C04E04FF0080C31
:101CC00001E04FEAD17C0CEB4C0324FA03F404F05E
:101CD0000704B4F1040C06D20EEB840CBDE81040EE
:101CE0004CF0010C6047DFE80CF0070802024FF0EF
:101CF0000040A0F5800010BD0846420018BFD2F198
:101D0000807288BF00F0004010BDF1EE100A4FF65F
:101D1000FF71C0F2C03120EA010040F04070E1EEF6
:101D2000100A7047FF2141EAD050C00570470000FB
:101D3000501D00080000002010000000D401000821
:101D4000601D00081000002078060000F001000867
:101D50000024F400010000000000A0410000000089
:040000050800019955
:00000001FF
