:020000040800F2
:100000006806002039020008410200084302000887
:1000100045020008470200084902000800000000ED
:100020000000000000000000000000004B0200087B
:100030004D020008000000004F02000851020008B5
:10004000530200085302000853020008530200083C
:10005000530200085302000853020008530200082C
:10006000530200085302000853020008530200081C
:10007000530200085302000853020008530200080C
:100080005302000853020008530200080000000059
:100090000000000000000000000000005302000803
:1000A00053020008530200085302000853020008DC
:1000B00053020008530200085302000853020008CC
:1000C00053020008530200085302000853020008BC
:1000D0005302000853020008530200080000000009
:1000E00053020008530200085302000800000000F9
:1000F00000000000000000000000000053020008A3
:1001000000000000530200085302000853020008D8
:1001100000000000000000000000000000000000DF
:10012000530200085302000853020008530200085B
:100130005302000800000000000000000000000062
:100140000000000000000000000000005302000852
:10015000530200085302000853020008530200082B
:1001600053020008530200080000000000000000D5
:10017000000000000000000000000000000000007F
:100180000000000053020008000000000000000012
:10019000530200085302000800F002F800F03CF897
:1001A0000AA090E8000C82448344AAF10107DA45D2
:1001B00001D100F031F8AFF2090EBAE80F0013F0E8
:1001C000010F18BFFB1A43F001031847B4030000E6
:1001D000D4030000103A24BF78C878C1FAD8520777
:1001E00024BF30C830C144BF04680C6070470000B1
:1001F0000023002400250026103A28BF78C1FBD830
:10020000520728BF30C148BF0B6070471FB500F0D0
:10021000AAF91FBD10B510BD00F031F81146FFF767
:10022000F5FF00F049F900F04FF803B4FFF7F2FFD3
:1002300003BC00F057F80000094880470948004710
:10024000FEE7FEE7FEE7FEE7FEE7FEE7FEE7FEE786
:10025000FEE7FEE704480549054A064B70470000E3
:10026000A504000899010008680000206806002025
:10027000680200206802002070477047704775468A
:1002800000F02CF8AE4605006946534620F0070002
:10029000854618B020B5FFF7DDFFBDE820404FF0E0
:1002A00000064FF000074FF000084FF0000BAC467F
:1002B000ACE8C009ACE8C009ACE8C009ACE8C009CA
:1002C00021F007018D46704710B50446AFF300805A
:1002D0002046BDE81040FFF7A8BF00000048704767
:1002E0000800002001491820ABBEFEE726000200EE
:1002F0007047000080B584B003900291019203988A
:100300000021C4F20201884203D1FFE700F068F83F
:10031000FFE7039840F20041C4F20201884203D192
:10032000FFE700F069F8FFE7039840F60001C4F228
:100330000201884203D1FFE700F06AF8FFE7039863
:1003400040F60041C4F20201884203D1FFE700F009
:100350006BF8FFE703980299019A00F003F804B0E4
:1003600080BD000083B0029001910092019841008D
:10037000032000FA01F2029908689043086000988F
:100380000199490000FA01F20299086810430860D7
:1003900003B0704783B00290019100200090029852
:1003A00000690199C84000F001000090009803B076
:1003B0007047000083B002900191009201990120E2
:1003C00000FA01F202994869904348610098019946
:1003D00000FA01F2029948691043486103B070477E
:1003E00080B500F02DF843F63001C4F20201086830
:1003F00040F00100086080BD80B500F021F843F6B0
:100400003001C4F20201086840F00200086080BDBB
:1004100080B500F015F843F63001C4F20201086817
:1004200040F00400086080BD80B500F009F843F694
:100430003001C4F20201086840F00800086080BD85
:1004400043F60001C4F20201086840F001000860B0
:10045000FFE743F60000C4F20200006880070028AE
:1004600001D4FFE7F5E743F60801C4F2020108688A
:1004700020F00300086008680860FFE743F6080002
:10048000C4F20200006810F00C0F01D0FFE7F5E79E
:1004900040F20001C2F2000142F20040C0F2F4005A
:1004A000086070474EF68851CEF20001086840F4AB
:1004B000700008607047000080B582B00020019095
:1004C00000F03EF8FFE70020C4F202000521FFF72C
:1004D00061FFD0B1FFE740F60000C4F202000D2139
:1004E000FFF758FF40B1FFE70020C4F202000521EA
:1004F0000022FFF75FFF07E00020C4F202000521A1
:100500000022FFF757FFFFE719E040F60000C4F2B2
:1005100002000D21FFF73EFF40B1FFE70020C4F2CB
:10052000020005210122FFF745FF07E00020C4F289
:10053000020005210122FFF73DFFFFE7FFE7C2E7C9
:1005400080B5FFF77DFF40F60000C4F202000D21E8
:100550000022FFF7CFFE0020C4F202000521012295
:10056000FFF7C8FE80BDF1EE100A4FF6FF71C0F232
:10057000C03120EA010040F04070E1EE100A7047FF
:10058000A00500080000002008000000D4010008B9
:10059000A80500080800002060060000F00100081F
:0805A0000024F400000000003B
:040000050800019955
:00000001FF
